{
  "_format": "hh-sol-artifact-1",
  "contractName": "UniqueTweet",
  "sourceName": "contracts/Tweet.sol",
  "abi": [
    {
      "inputs": [],
      "stateMutability": "nonpayable",
      "type": "constructor"
    },
    {
      "anonymous": false,
      "inputs": [
        {
          "indexed": true,
          "internalType": "address",
          "name": "owner",
          "type": "address"
        },
        {
          "indexed": true,
          "internalType": "address",
          "name": "approved",
          "type": "address"
        },
        {
          "indexed": true,
          "internalType": "uint256",
          "name": "tokenId",
          "type": "uint256"
        }
      ],
      "name": "Approval",
      "type": "event"
    },
    {
      "anonymous": false,
      "inputs": [
        {
          "indexed": true,
          "internalType": "address",
          "name": "owner",
          "type": "address"
        },
        {
          "indexed": true,
          "internalType": "address",
          "name": "operator",
          "type": "address"
        },
        {
          "indexed": false,
          "internalType": "bool",
          "name": "approved",
          "type": "bool"
        }
      ],
      "name": "ApprovalForAll",
      "type": "event"
    },
    {
      "anonymous": false,
      "inputs": [
        {
          "indexed": true,
          "internalType": "address",
          "name": "from",
          "type": "address"
        },
        {
          "indexed": true,
          "internalType": "address",
          "name": "to",
          "type": "address"
        },
        {
          "indexed": true,
          "internalType": "uint256",
          "name": "tokenId",
          "type": "uint256"
        }
      ],
      "name": "Transfer",
      "type": "event"
    },
    {
      "anonymous": false,
      "inputs": [
        {
          "indexed": true,
          "internalType": "address",
          "name": "user",
          "type": "address"
        },
        {
          "indexed": false,
          "internalType": "string",
          "name": "text",
          "type": "string"
        },
        {
          "indexed": false,
          "internalType": "string",
          "name": "date",
          "type": "string"
        }
      ],
      "name": "userTweets",
      "type": "event"
    },
    {
      "inputs": [
        {
          "internalType": "address",
          "name": "to",
          "type": "address"
        },
        {
          "internalType": "uint256",
          "name": "tokenId",
          "type": "uint256"
        }
      ],
      "name": "approve",
      "outputs": [],
      "stateMutability": "nonpayable",
      "type": "function"
    },
    {
      "inputs": [
        {
          "internalType": "address",
          "name": "owner",
          "type": "address"
        }
      ],
      "name": "balanceOf",
      "outputs": [
        {
          "internalType": "uint256",
          "name": "",
          "type": "uint256"
        }
      ],
      "stateMutability": "view",
      "type": "function"
    },
    {
      "inputs": [],
      "name": "baseURI",
      "outputs": [
        {
          "internalType": "string",
          "name": "",
          "type": "string"
        }
      ],
      "stateMutability": "view",
      "type": "function"
    },
    {
      "inputs": [],
      "name": "countTweets",
      "outputs": [
        {
          "internalType": "uint256",
          "name": "",
          "type": "uint256"
        }
      ],
      "stateMutability": "view",
      "type": "function"
    },
    {
      "inputs": [
        {
          "internalType": "uint256",
          "name": "tokenId",
          "type": "uint256"
        }
      ],
      "name": "getApproved",
      "outputs": [
        {
          "internalType": "address",
          "name": "",
          "type": "address"
        }
      ],
      "stateMutability": "view",
      "type": "function"
    },
    {
      "inputs": [],
      "name": "getTweets",
      "outputs": [
        {
          "components": [
            {
              "internalType": "address",
              "name": "user",
              "type": "address"
            },
            {
              "internalType": "string",
              "name": "text",
              "type": "string"
            },
            {
              "internalType": "string",
              "name": "date",
              "type": "string"
            }
          ],
          "internalType": "struct Tweet[]",
          "name": "",
          "type": "tuple[]"
        }
      ],
      "stateMutability": "view",
      "type": "function"
    },
    {
      "inputs": [
        {
          "internalType": "address",
          "name": "owner",
          "type": "address"
        },
        {
          "internalType": "address",
          "name": "operator",
          "type": "address"
        }
      ],
      "name": "isApprovedForAll",
      "outputs": [
        {
          "internalType": "bool",
          "name": "",
          "type": "bool"
        }
      ],
      "stateMutability": "view",
      "type": "function"
    },
    {
      "inputs": [
        {
          "internalType": "string",
          "name": "text",
          "type": "string"
        },
        {
          "internalType": "string",
          "name": "date",
          "type": "string"
        }
      ],
      "name": "mint",
      "outputs": [],
      "stateMutability": "nonpayable",
      "type": "function"
    },
    {
      "inputs": [],
      "name": "name",
      "outputs": [
        {
          "internalType": "string",
          "name": "",
          "type": "string"
        }
      ],
      "stateMutability": "view",
      "type": "function"
    },
    {
      "inputs": [
        {
          "internalType": "uint256",
          "name": "tokenId",
          "type": "uint256"
        }
      ],
      "name": "ownerOf",
      "outputs": [
        {
          "internalType": "address",
          "name": "",
          "type": "address"
        }
      ],
      "stateMutability": "view",
      "type": "function"
    },
    {
      "inputs": [
        {
          "internalType": "address",
          "name": "from",
          "type": "address"
        },
        {
          "internalType": "address",
          "name": "to",
          "type": "address"
        },
        {
          "internalType": "uint256",
          "name": "tokenId",
          "type": "uint256"
        }
      ],
      "name": "safeTransferFrom",
      "outputs": [],
      "stateMutability": "nonpayable",
      "type": "function"
    },
    {
      "inputs": [
        {
          "internalType": "address",
          "name": "from",
          "type": "address"
        },
        {
          "internalType": "address",
          "name": "to",
          "type": "address"
        },
        {
          "internalType": "uint256",
          "name": "tokenId",
          "type": "uint256"
        },
        {
          "internalType": "bytes",
          "name": "_data",
          "type": "bytes"
        }
      ],
      "name": "safeTransferFrom",
      "outputs": [],
      "stateMutability": "nonpayable",
      "type": "function"
    },
    {
      "inputs": [
        {
          "internalType": "address",
          "name": "operator",
          "type": "address"
        },
        {
          "internalType": "bool",
          "name": "approved",
          "type": "bool"
        }
      ],
      "name": "setApprovalForAll",
      "outputs": [],
      "stateMutability": "nonpayable",
      "type": "function"
    },
    {
      "inputs": [
        {
          "internalType": "bytes4",
          "name": "interfaceId",
          "type": "bytes4"
        }
      ],
      "name": "supportsInterface",
      "outputs": [
        {
          "internalType": "bool",
          "name": "",
          "type": "bool"
        }
      ],
      "stateMutability": "view",
      "type": "function"
    },
    {
      "inputs": [],
      "name": "symbol",
      "outputs": [
        {
          "internalType": "string",
          "name": "",
          "type": "string"
        }
      ],
      "stateMutability": "view",
      "type": "function"
    },
    {
      "inputs": [
        {
          "internalType": "uint256",
          "name": "index",
          "type": "uint256"
        }
      ],
      "name": "tokenByIndex",
      "outputs": [
        {
          "internalType": "uint256",
          "name": "",
          "type": "uint256"
        }
      ],
      "stateMutability": "view",
      "type": "function"
    },
    {
      "inputs": [
        {
          "internalType": "address",
          "name": "owner",
          "type": "address"
        },
        {
          "internalType": "uint256",
          "name": "index",
          "type": "uint256"
        }
      ],
      "name": "tokenOfOwnerByIndex",
      "outputs": [
        {
          "internalType": "uint256",
          "name": "",
          "type": "uint256"
        }
      ],
      "stateMutability": "view",
      "type": "function"
    },
    {
      "inputs": [
        {
          "internalType": "uint256",
          "name": "tokenId",
          "type": "uint256"
        }
      ],
      "name": "tokenURI",
      "outputs": [
        {
          "internalType": "string",
          "name": "",
          "type": "string"
        }
      ],
      "stateMutability": "view",
      "type": "function"
    },
    {
      "inputs": [],
      "name": "totalSupply",
      "outputs": [
        {
          "internalType": "uint256",
          "name": "",
          "type": "uint256"
        }
      ],
      "stateMutability": "view",
      "type": "function"
    },
    {
      "inputs": [
        {
          "internalType": "address",
          "name": "from",
          "type": "address"
        },
        {
          "internalType": "address",
          "name": "to",
          "type": "address"
        },
        {
          "internalType": "uint256",
          "name": "tokenId",
          "type": "uint256"
        }
      ],
      "name": "transferFrom",
      "outputs": [],
      "stateMutability": "nonpayable",
      "type": "function"
    },
    {
      "inputs": [
        {
          "internalType": "uint256",
          "name": "_tokenId",
          "type": "uint256"
        },
        {
          "internalType": "address payable",
          "name": "buyer",
          "type": "address"
        }
      ],
      "name": "transferTweet",
      "outputs": [],
      "stateMutability": "payable",
      "type": "function"
    },
    {
      "inputs": [
        {
          "internalType": "uint256",
          "name": "",
          "type": "uint256"
        }
      ],
      "name": "tweets",
      "outputs": [
        {
          "internalType": "address",
          "name": "user",
          "type": "address"
        },
        {
          "internalType": "string",
          "name": "text",
          "type": "string"
        },
        {
          "internalType": "string",
          "name": "date",
          "type": "string"
        }
      ],
      "stateMutability": "view",
      "type": "function"
    }
  ],
  "bytecode": "0x60806040523480156200001157600080fd5b506040518060400160405280600b81526020017f556e6971756554776565740000000000000000000000000000000000000000008152506040518060400160405280600b81526020017f554e495155455457454554000000000000000000000000000000000000000000815250620000966301ffc9a760e01b6200011860201b60201c565b8160069080519060200190620000ae929190620001f0565b508060079080519060200190620000c7929190620001f0565b50620000e06380ac58cd60e01b6200011860201b60201c565b620000f8635b5e139f60e01b6200011860201b60201c565b6200011063780e9d6360e01b6200011860201b60201c565b50506200030b565b63ffffffff60e01b817bffffffffffffffffffffffffffffffffffffffffffffffffffffffff1916141562000184576040517f08c379a00000000000000000000000000000000000000000000000000000000081526004016200017b90620002d8565b60405180910390fd5b6001600080837bffffffffffffffffffffffffffffffffffffffffffffffffffffffff19167bffffffffffffffffffffffffffffffffffffffffffffffffffffffff1916815260200190815260200160002060006101000a81548160ff02191690831515021790555050565b828054600181600116156101000203166002900490600052602060002090601f016020900481019282601f106200023357805160ff191683800117855562000264565b8280016001018555821562000264579182015b828111156200026357825182559160200191906001019062000246565b5b50905062000273919062000277565b5090565b5b808211156200029257600081600090555060010162000278565b5090565b6000620002a5601c83620002fa565b91507f4552433136353a20696e76616c696420696e74657266616365206964000000006000830152602082019050919050565b60006020820190508181036000830152620002f38162000296565b9050919050565b600082825260208201905092915050565b613740806200031b6000396000f3fe6080604052600436106101355760003560e01c80636c0360eb116100ab578063b88d4fde1161006f578063b88d4fde1461044c578063c87b56dd14610475578063c90d515a146104b2578063e8d857b0146104ce578063e985e9c51461050d578063fc86741f1461054a57610135565b80636c0360eb1461036757806370a08231146103925780638aa0fdad146103cf57806395d89b41146103f8578063a22cb4651461042357610135565b806318160ddd116100fd57806318160ddd1461023357806323b872dd1461025e5780632f745c591461028757806342842e0e146102c45780634f6ccce7146102ed5780636352211e1461032a57610135565b806301ffc9a71461013a5780630697ccf01461017757806306fdde03146101a2578063081812fc146101cd578063095ea7b31461020a575b600080fd5b34801561014657600080fd5b50610161600480360381019061015c91906126f7565b610575565b60405161016e9190613189565b60405180910390f35b34801561018357600080fd5b5061018c6105dc565b604051610199919061341d565b60405180910390f35b3480156101ae57600080fd5b506101b76105e9565b6040516101c491906131a4565b60405180910390f35b3480156101d957600080fd5b506101f460048036038101906101ef91906127b5565b61068b565b60405161020191906130bb565b60405180910390f35b34801561021657600080fd5b50610231600480360381019061022c91906126bb565b610710565b005b34801561023f57600080fd5b50610248610828565b604051610255919061341d565b60405180910390f35b34801561026a57600080fd5b50610285600480360381019061028091906125b5565b610839565b005b34801561029357600080fd5b506102ae60048036038101906102a991906126bb565b610899565b6040516102bb919061341d565b60405180910390f35b3480156102d057600080fd5b506102eb60048036038101906102e691906125b5565b6108f4565b005b3480156102f957600080fd5b50610314600480360381019061030f91906127b5565b610914565b604051610321919061341d565b60405180910390f35b34801561033657600080fd5b50610351600480360381019061034c91906127b5565b610937565b60405161035e91906130bb565b60405180910390f35b34801561037357600080fd5b5061037c61096e565b60405161038991906131a4565b60405180910390f35b34801561039e57600080fd5b506103b960048036038101906103b49190612550565b610a10565b6040516103c6919061341d565b60405180910390f35b3480156103db57600080fd5b506103f660048036038101906103f19190612749565b610acf565b005b34801561040457600080fd5b5061040d610c17565b60405161041a91906131a4565b60405180910390f35b34801561042f57600080fd5b5061044a6004803603810190610445919061267f565b610cb9565b005b34801561045857600080fd5b50610473600480360381019061046e9190612604565b610e3a565b005b34801561048157600080fd5b5061049c600480360381019061049791906127b5565b610e9c565b6040516104a991906131a4565b60405180910390f35b6104cc60048036038101906104c791906127de565b61101f565b005b3480156104da57600080fd5b506104f560048036038101906104f091906127b5565b611036565b60405161050493929190613122565b60405180910390f35b34801561051957600080fd5b50610534600480360381019061052f9190612579565b6111bd565b6040516105419190613189565b60405180910390f35b34801561055657600080fd5b5061055f611251565b60405161056c9190613167565b60405180910390f35b6000806000837bffffffffffffffffffffffffffffffffffffffffffffffffffffffff19167bffffffffffffffffffffffffffffffffffffffffffffffffffffffff1916815260200190815260200160002060009054906101000a900460ff169050919050565b6000600a80549050905090565b606060068054600181600116156101000203166002900480601f0160208091040260200160405190810160405280929190818152602001828054600181600116156101000203166002900480156106815780601f1061065657610100808354040283529160200191610681565b820191906000526020600020905b81548152906001019060200180831161066457829003601f168201915b5050505050905090565b60006106968261144a565b6106d5576040517f08c379a00000000000000000000000000000000000000000000000000000000081526004016106cc9061335d565b60405180910390fd5b6004600083815260200190815260200160002060009054906101000a900473ffffffffffffffffffffffffffffffffffffffff169050919050565b600061071b82610937565b90508073ffffffffffffffffffffffffffffffffffffffff168373ffffffffffffffffffffffffffffffffffffffff16141561078c576040517f08c379a0000000000000000000000000000000000000000000000000000000008152600401610783906133bd565b60405180910390fd5b8073ffffffffffffffffffffffffffffffffffffffff166107ab611467565b73ffffffffffffffffffffffffffffffffffffffff1614806107da57506107d9816107d4611467565b6111bd565b5b610819576040517f08c379a0000000000000000000000000000000000000000000000000000000008152600401610810906132dd565b60405180910390fd5b610823838361146f565b505050565b60006108346002611528565b905090565b61084a610844611467565b8261153d565b610889576040517f08c379a0000000000000000000000000000000000000000000000000000000008152600401610880906133dd565b60405180910390fd5b61089483838361161b565b505050565b60006108ec82600160008673ffffffffffffffffffffffffffffffffffffffff1673ffffffffffffffffffffffffffffffffffffffff16815260200190815260200160002061183290919063ffffffff16565b905092915050565b61090f83838360405180602001604052806000815250610e3a565b505050565b60008061092b83600261184c90919063ffffffff16565b50905080915050919050565b6000610967826040518060600160405280602981526020016136e26029913960026118789092919063ffffffff16565b9050919050565b606060098054600181600116156101000203166002900480601f016020809104026020016040519081016040528092919081815260200182805460018160011615610100020316600290048015610a065780601f106109db57610100808354040283529160200191610a06565b820191906000526020600020905b8154815290600101906020018083116109e957829003601f168201915b5050505050905090565b60008073ffffffffffffffffffffffffffffffffffffffff168273ffffffffffffffffffffffffffffffffffffffff161415610a81576040517f08c379a0000000000000000000000000000000000000000000000000000000008152600401610a78906132fd565b60405180910390fd5b610ac8600160008473ffffffffffffffffffffffffffffffffffffffff1673ffffffffffffffffffffffffffffffffffffffff168152602001908152602001600020611897565b9050919050565b600a60405180606001604052803373ffffffffffffffffffffffffffffffffffffffff16815260200184815260200183815250908060018154018082558091505060019003906000526020600020906003020160009091909190915060008201518160000160006101000a81548173ffffffffffffffffffffffffffffffffffffffff021916908373ffffffffffffffffffffffffffffffffffffffff1602179055506020820151816001019080519060200190610b8e92919061238d565b506040820151816002019080519060200190610bab92919061238d565b5050506000600a805490509050610bc233826118ac565b3373ffffffffffffffffffffffffffffffffffffffff167fb4b3134cbcdb795f537bb8219b974289138888ddea01bc47f2286d687476fa2e8484604051610c0a9291906131c6565b60405180910390a2505050565b606060078054600181600116156101000203166002900480601f016020809104026020016040519081016040528092919081815260200182805460018160011615610100020316600290048015610caf5780601f10610c8457610100808354040283529160200191610caf565b820191906000526020600020905b815481529060010190602001808311610c9257829003601f168201915b5050505050905090565b610cc1611467565b73ffffffffffffffffffffffffffffffffffffffff168273ffffffffffffffffffffffffffffffffffffffff161415610d2f576040517f08c379a0000000000000000000000000000000000000000000000000000000008152600401610d269061327d565b60405180910390fd5b8060056000610d3c611467565b73ffffffffffffffffffffffffffffffffffffffff1673ffffffffffffffffffffffffffffffffffffffff16815260200190815260200160002060008473ffffffffffffffffffffffffffffffffffffffff1673ffffffffffffffffffffffffffffffffffffffff16815260200190815260200160002060006101000a81548160ff0219169083151502179055508173ffffffffffffffffffffffffffffffffffffffff16610de9611467565b73ffffffffffffffffffffffffffffffffffffffff167f17307eab39ab6107e8899845ad3d59bd9653f200f220920489ca2b5937696c3183604051610e2e9190613189565b60405180910390a35050565b610e4b610e45611467565b8361153d565b610e8a576040517f08c379a0000000000000000000000000000000000000000000000000000000008152600401610e81906133dd565b60405180910390fd5b610e9684848484611a3a565b50505050565b6060610ea78261144a565b610ee6576040517f08c379a0000000000000000000000000000000000000000000000000000000008152600401610edd9061339d565b60405180910390fd5b6060600860008481526020019081526020016000208054600181600116156101000203166002900480601f016020809104026020016040519081016040528092919081815260200182805460018160011615610100020316600290048015610f8f5780601f10610f6457610100808354040283529160200191610f8f565b820191906000526020600020905b815481529060010190602001808311610f7257829003601f168201915b505050505090506060610fa061096e565b9050600081511415610fb657819250505061101a565b600082511115610feb578082604051602001610fd3929190613097565b6040516020818303038152906040529250505061101a565b80610ff585611a96565b604051602001611006929190613097565b604051602081830303815290604052925050505b919050565b61103261102b83610937565b828461161b565b5050565b600a818154811061104357fe5b90600052602060002090600302016000915090508060000160009054906101000a900473ffffffffffffffffffffffffffffffffffffffff1690806001018054600181600116156101000203166002900480601f0160208091040260200160405190810160405280929190818152602001828054600181600116156101000203166002900480156111155780601f106110ea57610100808354040283529160200191611115565b820191906000526020600020905b8154815290600101906020018083116110f857829003601f168201915b505050505090806002018054600181600116156101000203166002900480601f0160208091040260200160405190810160405280929190818152602001828054600181600116156101000203166002900480156111b35780601f10611188576101008083540402835291602001916111b3565b820191906000526020600020905b81548152906001019060200180831161119657829003601f168201915b5050505050905083565b6000600560008473ffffffffffffffffffffffffffffffffffffffff1673ffffffffffffffffffffffffffffffffffffffff16815260200190815260200160002060008373ffffffffffffffffffffffffffffffffffffffff1673ffffffffffffffffffffffffffffffffffffffff16815260200190815260200160002060009054906101000a900460ff16905092915050565b6060600a805480602002602001604051908101604052809291908181526020016000905b8282101561144157838290600052602060002090600302016040518060600160405290816000820160009054906101000a900473ffffffffffffffffffffffffffffffffffffffff1673ffffffffffffffffffffffffffffffffffffffff1673ffffffffffffffffffffffffffffffffffffffff168152602001600182018054600181600116156101000203166002900480601f0160208091040260200160405190810160405280929190818152602001828054600181600116156101000203166002900480156113875780601f1061135c57610100808354040283529160200191611387565b820191906000526020600020905b81548152906001019060200180831161136a57829003601f168201915b50505050508152602001600282018054600181600116156101000203166002900480601f0160208091040260200160405190810160405280929190818152602001828054600181600116156101000203166002900480156114295780601f106113fe57610100808354040283529160200191611429565b820191906000526020600020905b81548152906001019060200180831161140c57829003601f168201915b50505050508152505081526020019060010190611275565b50505050905090565b6000611460826002611bdd90919063ffffffff16565b9050919050565b600033905090565b816004600083815260200190815260200160002060006101000a81548173ffffffffffffffffffffffffffffffffffffffff021916908373ffffffffffffffffffffffffffffffffffffffff160217905550808273ffffffffffffffffffffffffffffffffffffffff166114e283610937565b73ffffffffffffffffffffffffffffffffffffffff167f8c5be1e5ebec7d5bd14f71427d1e84f3dd0314c0f7b2291e5b200ac8c7c3b92560405160405180910390a45050565b600061153682600001611bf7565b9050919050565b60006115488261144a565b611587576040517f08c379a000000000000000000000000000000000000000000000000000000000815260040161157e906132bd565b60405180910390fd5b600061159283610937565b90508073ffffffffffffffffffffffffffffffffffffffff168473ffffffffffffffffffffffffffffffffffffffff16148061160157508373ffffffffffffffffffffffffffffffffffffffff166115e98461068b565b73ffffffffffffffffffffffffffffffffffffffff16145b80611612575061161181856111bd565b5b91505092915050565b8273ffffffffffffffffffffffffffffffffffffffff1661163b82610937565b73ffffffffffffffffffffffffffffffffffffffff1614611691576040517f08c379a00000000000000000000000000000000000000000000000000000000081526004016116889061337d565b60405180910390fd5b600073ffffffffffffffffffffffffffffffffffffffff168273ffffffffffffffffffffffffffffffffffffffff161415611701576040517f08c379a00000000000000000000000000000000000000000000000000000000081526004016116f89061325d565b60405180910390fd5b61170c838383611c08565b61171760008261146f565b61176881600160008673ffffffffffffffffffffffffffffffffffffffff1673ffffffffffffffffffffffffffffffffffffffff168152602001908152602001600020611c0d90919063ffffffff16565b506117ba81600160008573ffffffffffffffffffffffffffffffffffffffff1673ffffffffffffffffffffffffffffffffffffffff168152602001908152602001600020611c2790919063ffffffff16565b506117d181836002611c419092919063ffffffff16565b50808273ffffffffffffffffffffffffffffffffffffffff168473ffffffffffffffffffffffffffffffffffffffff167fddf252ad1be2c89b69c2b068fc378daa952ba7f163c4a11628f55a4df523b3ef60405160405180910390a4505050565b60006118418360000183611c76565b60001c905092915050565b60008060008061185f8660000186611ce3565b915091508160001c8160001c9350935050509250929050565b600061188b846000018460001b84611d66565b60001c90509392505050565b60006118a582600001611df7565b9050919050565b600073ffffffffffffffffffffffffffffffffffffffff168273ffffffffffffffffffffffffffffffffffffffff16141561191c576040517f08c379a00000000000000000000000000000000000000000000000000000000081526004016119139061333d565b60405180910390fd5b6119258161144a565b15611965576040517f08c379a000000000000000000000000000000000000000000000000000000000815260040161195c9061323d565b60405180910390fd5b61197160008383611c08565b6119c281600160008573ffffffffffffffffffffffffffffffffffffffff1673ffffffffffffffffffffffffffffffffffffffff168152602001908152602001600020611c2790919063ffffffff16565b506119d981836002611c419092919063ffffffff16565b50808273ffffffffffffffffffffffffffffffffffffffff16600073ffffffffffffffffffffffffffffffffffffffff167fddf252ad1be2c89b69c2b068fc378daa952ba7f163c4a11628f55a4df523b3ef60405160405180910390a45050565b611a4584848461161b565b611a5184848484611e08565b611a90576040517f08c379a0000000000000000000000000000000000000000000000000000000008152600401611a879061321d565b60405180910390fd5b50505050565b60606000821415611ade576040518060400160405280600181526020017f30000000000000000000000000000000000000000000000000000000000000008152509050611bd8565b600082905060005b60008214611b08578080600101915050600a8281611b0057fe5b049150611ae6565b60608167ffffffffffffffff81118015611b2157600080fd5b506040519080825280601f01601f191660200182016040528015611b545781602001600182028036833780820191505090505b50905060006001830390508593505b60008414611bd057600a8481611b7557fe5b0660300160f81b82828060019003935081518110611b8f57fe5b60200101907effffffffffffffffffffffffffffffffffffffffffffffffffffffffffffff1916908160001a905350600a8481611bc857fe5b049350611b63565b819450505050505b919050565b6000611bef836000018360001b611f6c565b905092915050565b600081600001805490509050919050565b505050565b6000611c1f836000018360001b611f8f565b905092915050565b6000611c39836000018360001b612077565b905092915050565b6000611c6d846000018460001b8473ffffffffffffffffffffffffffffffffffffffff1660001b6120e7565b90509392505050565b600081836000018054905011611cc1576040517f08c379a0000000000000000000000000000000000000000000000000000000008152600401611cb8906131fd565b60405180910390fd5b826000018281548110611cd057fe5b9060005260206000200154905092915050565b60008082846000018054905011611d2f576040517f08c379a0000000000000000000000000000000000000000000000000000000008152600401611d269061331d565b60405180910390fd5b6000846000018481548110611d4057fe5b906000526020600020906002020190508060000154816001015492509250509250929050565b60008084600101600085815260200190815260200160002054905060008114158390611dc8576040517f08c379a0000000000000000000000000000000000000000000000000000000008152600401611dbf91906131a4565b60405180910390fd5b50846000016001820381548110611ddb57fe5b9060005260206000209060020201600101549150509392505050565b600081600001805490509050919050565b6000611e298473ffffffffffffffffffffffffffffffffffffffff166121c3565b611e365760019050611f64565b6060611efd63150b7a0260e01b611e4b611467565b888787604051602401611e6194939291906130d6565b604051602081830303815290604052907bffffffffffffffffffffffffffffffffffffffffffffffffffffffff19166020820180517bffffffffffffffffffffffffffffffffffffffffffffffffffffffff83818316178352505050506040518060600160405280603281526020016136b0603291398773ffffffffffffffffffffffffffffffffffffffff166121d69092919063ffffffff16565b9050600081806020019051810190611f159190612720565b905063150b7a0260e01b7bffffffffffffffffffffffffffffffffffffffffffffffffffffffff1916817bffffffffffffffffffffffffffffffffffffffffffffffffffffffff191614925050505b949350505050565b600080836001016000848152602001908152602001600020541415905092915050565b6000808360010160008481526020019081526020016000205490506000811461206b5760006001820390506000600186600001805490500390506000866000018281548110611fda57fe5b9060005260206000200154905080876000018481548110611ff757fe5b906000526020600020018190555060018301876001016000838152602001908152602001600020819055508660000180548061202f57fe5b60019003818190600052602060002001600090559055866001016000878152602001908152602001600020600090556001945050505050612071565b60009150505b92915050565b600061208383836121ee565b6120dc5782600001829080600181540180825580915050600190039060005260206000200160009091909190915055826000018054905083600101600084815260200190815260200160002081905550600190506120e1565b600090505b92915050565b600080846001016000858152602001908152602001600020549050600081141561218e578460000160405180604001604052808681526020018581525090806001815401808255809150506001900390600052602060002090600202016000909190919091506000820151816000015560208201518160010155505084600001805490508560010160008681526020019081526020016000208190555060019150506121bc565b828560000160018303815481106121a157fe5b90600052602060002090600202016001018190555060009150505b9392505050565b600080823b905060008111915050919050565b60606121e58484600085612211565b90509392505050565b600080836001016000848152602001908152602001600020541415905092915050565b606082471015612256576040517f08c379a000000000000000000000000000000000000000000000000000000000815260040161224d9061329d565b60405180910390fd5b61225f856121c3565b61229e576040517f08c379a0000000000000000000000000000000000000000000000000000000008152600401612295906133fd565b60405180910390fd5b600060608673ffffffffffffffffffffffffffffffffffffffff1685876040516122c89190613080565b60006040518083038185875af1925050503d8060008114612305576040519150601f19603f3d011682016040523d82523d6000602084013e61230a565b606091505b509150915061231a828286612326565b92505050949350505050565b6060831561233657829050612386565b6000835111156123495782518084602001fd5b816040517f08c379a000000000000000000000000000000000000000000000000000000000815260040161237d91906131a4565b60405180910390fd5b9392505050565b828054600181600116156101000203166002900490600052602060002090601f016020900481019282601f106123ce57805160ff19168380011785556123fc565b828001600101855582156123fc579182015b828111156123fb5782518255916020019190600101906123e0565b5b509050612409919061240d565b5090565b5b8082111561242657600081600090555060010161240e565b5090565b6000813590506124398161363c565b92915050565b60008135905061244e81613653565b92915050565b6000813590506124638161366a565b92915050565b60008135905061247881613681565b92915050565b60008151905061248d81613681565b92915050565b600082601f8301126124a457600080fd5b81356124b76124b282613469565b613438565b915080825260208301602083018583830111156124d357600080fd5b6124de8382846135e7565b50505092915050565b600082601f8301126124f857600080fd5b813561250b61250682613499565b613438565b9150808252602083016020830185838301111561252757600080fd5b6125328382846135e7565b50505092915050565b60008135905061254a81613698565b92915050565b60006020828403121561256257600080fd5b60006125708482850161242a565b91505092915050565b6000806040838503121561258c57600080fd5b600061259a8582860161242a565b92505060206125ab8582860161242a565b9150509250929050565b6000806000606084860312156125ca57600080fd5b60006125d88682870161242a565b93505060206125e98682870161242a565b92505060406125fa8682870161253b565b9150509250925092565b6000806000806080858703121561261a57600080fd5b60006126288782880161242a565b94505060206126398782880161242a565b935050604061264a8782880161253b565b925050606085013567ffffffffffffffff81111561266757600080fd5b61267387828801612493565b91505092959194509250565b6000806040838503121561269257600080fd5b60006126a08582860161242a565b92505060206126b185828601612454565b9150509250929050565b600080604083850312156126ce57600080fd5b60006126dc8582860161242a565b92505060206126ed8582860161253b565b9150509250929050565b60006020828403121561270957600080fd5b600061271784828501612469565b91505092915050565b60006020828403121561273257600080fd5b60006127408482850161247e565b91505092915050565b6000806040838503121561275c57600080fd5b600083013567ffffffffffffffff81111561277657600080fd5b612782858286016124e7565b925050602083013567ffffffffffffffff81111561279f57600080fd5b6127ab858286016124e7565b9150509250929050565b6000602082840312156127c757600080fd5b60006127d58482850161253b565b91505092915050565b600080604083850312156127f157600080fd5b60006127ff8582860161253b565b92505060206128108582860161243f565b9150509250929050565b6000612826838361301a565b905092915050565b61283781613573565b82525050565b61284681613561565b82525050565b61285581613561565b82525050565b6000612866826134d9565b6128708185613507565b935083602082028501612882856134c9565b8060005b858110156128be578484038952815161289f858261281a565b94506128aa836134fa565b925060208a01995050600181019050612886565b50829750879550505050505092915050565b6128d981613585565b82525050565b60006128ea826134e4565b6128f48185613518565b93506129048185602086016135f6565b61290d8161362b565b840191505092915050565b6000612923826134e4565b61292d8185613529565b935061293d8185602086016135f6565b80840191505092915050565b6000612954826134ef565b61295e8185613534565b935061296e8185602086016135f6565b6129778161362b565b840191505092915050565b600061298d826134ef565b6129978185613545565b93506129a78185602086016135f6565b6129b08161362b565b840191505092915050565b60006129c6826134ef565b6129d08185613556565b93506129e08185602086016135f6565b80840191505092915050565b60006129f9602283613545565b91507f456e756d657261626c655365743a20696e646578206f7574206f6620626f756e60008301527f64730000000000000000000000000000000000000000000000000000000000006020830152604082019050919050565b6000612a5f603283613545565b91507f4552433732313a207472616e7366657220746f206e6f6e20455243373231526560008301527f63656976657220696d706c656d656e74657200000000000000000000000000006020830152604082019050919050565b6000612ac5601c83613545565b91507f4552433732313a20746f6b656e20616c7265616479206d696e746564000000006000830152602082019050919050565b6000612b05602483613545565b91507f4552433732313a207472616e7366657220746f20746865207a65726f2061646460008301527f72657373000000000000000000000000000000000000000000000000000000006020830152604082019050919050565b6000612b6b601983613545565b91507f4552433732313a20617070726f766520746f2063616c6c6572000000000000006000830152602082019050919050565b6000612bab602683613545565b91507f416464726573733a20696e73756666696369656e742062616c616e636520666f60008301527f722063616c6c00000000000000000000000000000000000000000000000000006020830152604082019050919050565b6000612c11602c83613545565b91507f4552433732313a206f70657261746f7220717565727920666f72206e6f6e657860008301527f697374656e7420746f6b656e00000000000000000000000000000000000000006020830152604082019050919050565b6000612c77603883613545565b91507f4552433732313a20617070726f76652063616c6c6572206973206e6f74206f7760008301527f6e6572206e6f7220617070726f76656420666f7220616c6c00000000000000006020830152604082019050919050565b6000612cdd602a83613545565b91507f4552433732313a2062616c616e636520717565727920666f7220746865207a6560008301527f726f2061646472657373000000000000000000000000000000000000000000006020830152604082019050919050565b6000612d43602283613545565b91507f456e756d657261626c654d61703a20696e646578206f7574206f6620626f756e60008301527f64730000000000000000000000000000000000000000000000000000000000006020830152604082019050919050565b6000612da9602083613545565b91507f4552433732313a206d696e7420746f20746865207a65726f20616464726573736000830152602082019050919050565b6000612de9602c83613545565b91507f4552433732313a20617070726f76656420717565727920666f72206e6f6e657860008301527f697374656e7420746f6b656e00000000000000000000000000000000000000006020830152604082019050919050565b6000612e4f602983613545565b91507f4552433732313a207472616e73666572206f6620746f6b656e2074686174206960008301527f73206e6f74206f776e00000000000000000000000000000000000000000000006020830152604082019050919050565b6000612eb5602f83613545565b91507f4552433732314d657461646174613a2055524920717565727920666f72206e6f60008301527f6e6578697374656e7420746f6b656e00000000000000000000000000000000006020830152604082019050919050565b6000612f1b602183613545565b91507f4552433732313a20617070726f76616c20746f2063757272656e74206f776e6560008301527f72000000000000000000000000000000000000000000000000000000000000006020830152604082019050919050565b6000612f81603183613545565b91507f4552433732313a207472616e736665722063616c6c6572206973206e6f74206f60008301527f776e6572206e6f7220617070726f7665640000000000000000000000000000006020830152604082019050919050565b6000612fe7601d83613545565b91507f416464726573733a2063616c6c20746f206e6f6e2d636f6e74726163740000006000830152602082019050919050565b6000606083016000830151613032600086018261283d565b506020830151848203602086015261304a8282612949565b915050604083015184820360408601526130648282612949565b9150508091505092915050565b61307a816135dd565b82525050565b600061308c8284612918565b915081905092915050565b60006130a382856129bb565b91506130af82846129bb565b91508190509392505050565b60006020820190506130d0600083018461284c565b92915050565b60006080820190506130eb600083018761282e565b6130f8602083018661284c565b6131056040830185613071565b818103606083015261311781846128df565b905095945050505050565b6000606082019050613137600083018661284c565b81810360208301526131498185612982565b9050818103604083015261315d8184612982565b9050949350505050565b60006020820190508181036000830152613181818461285b565b905092915050565b600060208201905061319e60008301846128d0565b92915050565b600060208201905081810360008301526131be8184612982565b905092915050565b600060408201905081810360008301526131e08185612982565b905081810360208301526131f48184612982565b90509392505050565b60006020820190508181036000830152613216816129ec565b9050919050565b6000602082019050818103600083015261323681612a52565b9050919050565b6000602082019050818103600083015261325681612ab8565b9050919050565b6000602082019050818103600083015261327681612af8565b9050919050565b6000602082019050818103600083015261329681612b5e565b9050919050565b600060208201905081810360008301526132b681612b9e565b9050919050565b600060208201905081810360008301526132d681612c04565b9050919050565b600060208201905081810360008301526132f681612c6a565b9050919050565b6000602082019050818103600083015261331681612cd0565b9050919050565b6000602082019050818103600083015261333681612d36565b9050919050565b6000602082019050818103600083015261335681612d9c565b9050919050565b6000602082019050818103600083015261337681612ddc565b9050919050565b6000602082019050818103600083015261339681612e42565b9050919050565b600060208201905081810360008301526133b681612ea8565b9050919050565b600060208201905081810360008301526133d681612f0e565b9050919050565b600060208201905081810360008301526133f681612f74565b9050919050565b6000602082019050818103600083015261341681612fda565b9050919050565b60006020820190506134326000830184613071565b92915050565b6000604051905081810181811067ffffffffffffffff8211171561345f5761345e613629565b5b8060405250919050565b600067ffffffffffffffff82111561348457613483613629565b5b601f19601f8301169050602081019050919050565b600067ffffffffffffffff8211156134b4576134b3613629565b5b601f19601f8301169050602081019050919050565b6000819050602082019050919050565b600081519050919050565b600081519050919050565b600081519050919050565b6000602082019050919050565b600082825260208201905092915050565b600082825260208201905092915050565b600081905092915050565b600082825260208201905092915050565b600082825260208201905092915050565b600081905092915050565b600061356c826135bd565b9050919050565b600061357e826135bd565b9050919050565b60008115159050919050565b60007fffffffff0000000000000000000000000000000000000000000000000000000082169050919050565b600073ffffffffffffffffffffffffffffffffffffffff82169050919050565b6000819050919050565b82818337600083830152505050565b60005b838110156136145780820151818401526020810190506135f9565b83811115613623576000848401525b50505050565bfe5b6000601f19601f8301169050919050565b61364581613561565b811461365057600080fd5b50565b61365c81613573565b811461366757600080fd5b50565b61367381613585565b811461367e57600080fd5b50565b61368a81613591565b811461369557600080fd5b50565b6136a1816135dd565b81146136ac57600080fd5b5056fe4552433732313a207472616e7366657220746f206e6f6e20455243373231526563656976657220696d706c656d656e7465724552433732313a206f776e657220717565727920666f72206e6f6e6578697374656e7420746f6b656ea26469706673582212204c44d9e6eb775633b6f5f0b47364f1295c9b5a98d6196a1981c258e048923eba64736f6c63430007030033",
  "linkReferences": {},
  "deployedLinkReferences": {}
}