{
  "_format": "hh-sol-artifact-1",
  "contractName": "UniqueTweet",
  "sourceName": "contracts/Tweet.sol",
  "abi": [
    {
      "inputs": [],
      "stateMutability": "nonpayable",
      "type": "constructor"
    },
    {
      "anonymous": false,
      "inputs": [
        {
          "indexed": true,
          "internalType": "address",
          "name": "owner",
          "type": "address"
        },
        {
          "indexed": true,
          "internalType": "address",
          "name": "approved",
          "type": "address"
        },
        {
          "indexed": true,
          "internalType": "uint256",
          "name": "tokenId",
          "type": "uint256"
        }
      ],
      "name": "Approval",
      "type": "event"
    },
    {
      "anonymous": false,
      "inputs": [
        {
          "indexed": true,
          "internalType": "address",
          "name": "owner",
          "type": "address"
        },
        {
          "indexed": true,
          "internalType": "address",
          "name": "operator",
          "type": "address"
        },
        {
          "indexed": false,
          "internalType": "bool",
          "name": "approved",
          "type": "bool"
        }
      ],
      "name": "ApprovalForAll",
      "type": "event"
    },
    {
      "anonymous": false,
      "inputs": [
        {
          "indexed": true,
          "internalType": "address",
          "name": "from",
          "type": "address"
        },
        {
          "indexed": true,
          "internalType": "address",
          "name": "to",
          "type": "address"
        },
        {
          "indexed": true,
          "internalType": "uint256",
          "name": "tokenId",
          "type": "uint256"
        }
      ],
      "name": "Transfer",
      "type": "event"
    },
    {
      "anonymous": false,
      "inputs": [
        {
          "indexed": true,
          "internalType": "address",
          "name": "user",
          "type": "address"
        }
      ],
      "name": "userTweets",
      "type": "event"
    },
    {
      "inputs": [
        {
          "internalType": "address",
          "name": "to",
          "type": "address"
        },
        {
          "internalType": "uint256",
          "name": "tokenId",
          "type": "uint256"
        }
      ],
      "name": "approve",
      "outputs": [],
      "stateMutability": "nonpayable",
      "type": "function"
    },
    {
      "inputs": [
        {
          "internalType": "address",
          "name": "owner",
          "type": "address"
        }
      ],
      "name": "balanceOf",
      "outputs": [
        {
          "internalType": "uint256",
          "name": "",
          "type": "uint256"
        }
      ],
      "stateMutability": "view",
      "type": "function"
    },
    {
      "inputs": [],
      "name": "baseURI",
      "outputs": [
        {
          "internalType": "string",
          "name": "",
          "type": "string"
        }
      ],
      "stateMutability": "view",
      "type": "function"
    },
    {
      "inputs": [],
      "name": "countTweets",
      "outputs": [
        {
          "internalType": "uint256",
          "name": "",
          "type": "uint256"
        }
      ],
      "stateMutability": "view",
      "type": "function"
    },
    {
      "inputs": [
        {
          "internalType": "uint256",
          "name": "tokenId",
          "type": "uint256"
        }
      ],
      "name": "getApproved",
      "outputs": [
        {
          "internalType": "address",
          "name": "",
          "type": "address"
        }
      ],
      "stateMutability": "view",
      "type": "function"
    },
    {
      "inputs": [],
      "name": "getTweets",
      "outputs": [
        {
          "components": [
            {
              "internalType": "address",
              "name": "user",
              "type": "address"
            },
            {
              "internalType": "string",
              "name": "text",
              "type": "string"
            },
            {
              "internalType": "string",
              "name": "date",
              "type": "string"
            }
          ],
          "internalType": "struct Tweet[]",
          "name": "",
          "type": "tuple[]"
        }
      ],
      "stateMutability": "view",
      "type": "function"
    },
    {
      "inputs": [
        {
          "internalType": "address",
          "name": "owner",
          "type": "address"
        },
        {
          "internalType": "address",
          "name": "operator",
          "type": "address"
        }
      ],
      "name": "isApprovedForAll",
      "outputs": [
        {
          "internalType": "bool",
          "name": "",
          "type": "bool"
        }
      ],
      "stateMutability": "view",
      "type": "function"
    },
    {
      "inputs": [
        {
          "internalType": "string",
          "name": "text",
          "type": "string"
        },
        {
          "internalType": "string",
          "name": "date",
          "type": "string"
        }
      ],
      "name": "mint",
      "outputs": [],
      "stateMutability": "nonpayable",
      "type": "function"
    },
    {
      "inputs": [],
      "name": "name",
      "outputs": [
        {
          "internalType": "string",
          "name": "",
          "type": "string"
        }
      ],
      "stateMutability": "view",
      "type": "function"
    },
    {
      "inputs": [
        {
          "internalType": "uint256",
          "name": "tokenId",
          "type": "uint256"
        }
      ],
      "name": "ownerOf",
      "outputs": [
        {
          "internalType": "address",
          "name": "",
          "type": "address"
        }
      ],
      "stateMutability": "view",
      "type": "function"
    },
    {
      "inputs": [
        {
          "internalType": "address",
          "name": "from",
          "type": "address"
        },
        {
          "internalType": "address",
          "name": "to",
          "type": "address"
        },
        {
          "internalType": "uint256",
          "name": "tokenId",
          "type": "uint256"
        }
      ],
      "name": "safeTransferFrom",
      "outputs": [],
      "stateMutability": "nonpayable",
      "type": "function"
    },
    {
      "inputs": [
        {
          "internalType": "address",
          "name": "from",
          "type": "address"
        },
        {
          "internalType": "address",
          "name": "to",
          "type": "address"
        },
        {
          "internalType": "uint256",
          "name": "tokenId",
          "type": "uint256"
        },
        {
          "internalType": "bytes",
          "name": "_data",
          "type": "bytes"
        }
      ],
      "name": "safeTransferFrom",
      "outputs": [],
      "stateMutability": "nonpayable",
      "type": "function"
    },
    {
      "inputs": [
        {
          "internalType": "address",
          "name": "operator",
          "type": "address"
        },
        {
          "internalType": "bool",
          "name": "approved",
          "type": "bool"
        }
      ],
      "name": "setApprovalForAll",
      "outputs": [],
      "stateMutability": "nonpayable",
      "type": "function"
    },
    {
      "inputs": [
        {
          "internalType": "bytes4",
          "name": "interfaceId",
          "type": "bytes4"
        }
      ],
      "name": "supportsInterface",
      "outputs": [
        {
          "internalType": "bool",
          "name": "",
          "type": "bool"
        }
      ],
      "stateMutability": "view",
      "type": "function"
    },
    {
      "inputs": [],
      "name": "symbol",
      "outputs": [
        {
          "internalType": "string",
          "name": "",
          "type": "string"
        }
      ],
      "stateMutability": "view",
      "type": "function"
    },
    {
      "inputs": [
        {
          "internalType": "uint256",
          "name": "index",
          "type": "uint256"
        }
      ],
      "name": "tokenByIndex",
      "outputs": [
        {
          "internalType": "uint256",
          "name": "",
          "type": "uint256"
        }
      ],
      "stateMutability": "view",
      "type": "function"
    },
    {
      "inputs": [
        {
          "internalType": "address",
          "name": "owner",
          "type": "address"
        },
        {
          "internalType": "uint256",
          "name": "index",
          "type": "uint256"
        }
      ],
      "name": "tokenOfOwnerByIndex",
      "outputs": [
        {
          "internalType": "uint256",
          "name": "",
          "type": "uint256"
        }
      ],
      "stateMutability": "view",
      "type": "function"
    },
    {
      "inputs": [
        {
          "internalType": "uint256",
          "name": "tokenId",
          "type": "uint256"
        }
      ],
      "name": "tokenURI",
      "outputs": [
        {
          "internalType": "string",
          "name": "",
          "type": "string"
        }
      ],
      "stateMutability": "view",
      "type": "function"
    },
    {
      "inputs": [],
      "name": "totalSupply",
      "outputs": [
        {
          "internalType": "uint256",
          "name": "",
          "type": "uint256"
        }
      ],
      "stateMutability": "view",
      "type": "function"
    },
    {
      "inputs": [
        {
          "internalType": "address",
          "name": "from",
          "type": "address"
        },
        {
          "internalType": "address",
          "name": "to",
          "type": "address"
        },
        {
          "internalType": "uint256",
          "name": "tokenId",
          "type": "uint256"
        }
      ],
      "name": "transferFrom",
      "outputs": [],
      "stateMutability": "nonpayable",
      "type": "function"
    },
    {
      "inputs": [
        {
          "internalType": "uint256",
          "name": "_tokenId",
          "type": "uint256"
        },
        {
          "internalType": "address payable",
          "name": "buyer",
          "type": "address"
        }
      ],
      "name": "transferTweet",
      "outputs": [],
      "stateMutability": "payable",
      "type": "function"
    },
    {
      "inputs": [
        {
          "internalType": "uint256",
          "name": "",
          "type": "uint256"
        }
      ],
      "name": "tweets",
      "outputs": [
        {
          "internalType": "address",
          "name": "user",
          "type": "address"
        },
        {
          "internalType": "string",
          "name": "text",
          "type": "string"
        },
        {
          "internalType": "string",
          "name": "date",
          "type": "string"
        }
      ],
      "stateMutability": "view",
      "type": "function"
    }
  ],
  "bytecode": "0x60806040523480156200001157600080fd5b506040518060400160405280600b81526020017f556e6971756554776565740000000000000000000000000000000000000000008152506040518060400160405280600b81526020017f554e495155455457454554000000000000000000000000000000000000000000815250620000966301ffc9a760e01b6200011860201b60201c565b8160069080519060200190620000ae929190620001f0565b508060079080519060200190620000c7929190620001f0565b50620000e06380ac58cd60e01b6200011860201b60201c565b620000f8635b5e139f60e01b6200011860201b60201c565b6200011063780e9d6360e01b6200011860201b60201c565b50506200030b565b63ffffffff60e01b817bffffffffffffffffffffffffffffffffffffffffffffffffffffffff1916141562000184576040517f08c379a00000000000000000000000000000000000000000000000000000000081526004016200017b90620002d8565b60405180910390fd5b6001600080837bffffffffffffffffffffffffffffffffffffffffffffffffffffffff19167bffffffffffffffffffffffffffffffffffffffffffffffffffffffff1916815260200190815260200160002060006101000a81548160ff02191690831515021790555050565b828054600181600116156101000203166002900490600052602060002090601f016020900481019282601f106200023357805160ff191683800117855562000264565b8280016001018555821562000264579182015b828111156200026357825182559160200191906001019062000246565b5b50905062000273919062000277565b5090565b5b808211156200029257600081600090555060010162000278565b5090565b6000620002a5601c83620002fa565b91507f4552433136353a20696e76616c696420696e74657266616365206964000000006000830152602082019050919050565b60006020820190508181036000830152620002f38162000296565b9050919050565b600082825260208201905092915050565b6136b9806200031b6000396000f3fe6080604052600436106101355760003560e01c80636c0360eb116100ab578063b88d4fde1161006f578063b88d4fde1461044c578063c87b56dd14610475578063c90d515a146104b2578063e8d857b0146104ce578063e985e9c51461050d578063fc86741f1461054a57610135565b80636c0360eb1461036757806370a08231146103925780638aa0fdad146103cf57806395d89b41146103f8578063a22cb4651461042357610135565b806318160ddd116100fd57806318160ddd1461023357806323b872dd1461025e5780632f745c591461028757806342842e0e146102c45780634f6ccce7146102ed5780636352211e1461032a57610135565b806301ffc9a71461013a5780630697ccf01461017757806306fdde03146101a2578063081812fc146101cd578063095ea7b31461020a575b600080fd5b34801561014657600080fd5b50610161600480360381019061015c91906126a7565b610575565b60405161016e9190613139565b60405180910390f35b34801561018357600080fd5b5061018c6105dc565b6040516101999190613396565b60405180910390f35b3480156101ae57600080fd5b506101b76105e9565b6040516101c49190613154565b60405180910390f35b3480156101d957600080fd5b506101f460048036038101906101ef9190612765565b61068b565b604051610201919061306b565b60405180910390f35b34801561021657600080fd5b50610231600480360381019061022c919061266b565b610710565b005b34801561023f57600080fd5b50610248610828565b6040516102559190613396565b60405180910390f35b34801561026a57600080fd5b5061028560048036038101906102809190612565565b610839565b005b34801561029357600080fd5b506102ae60048036038101906102a9919061266b565b610899565b6040516102bb9190613396565b60405180910390f35b3480156102d057600080fd5b506102eb60048036038101906102e69190612565565b6108f4565b005b3480156102f957600080fd5b50610314600480360381019061030f9190612765565b610914565b6040516103219190613396565b60405180910390f35b34801561033657600080fd5b50610351600480360381019061034c9190612765565b610937565b60405161035e919061306b565b60405180910390f35b34801561037357600080fd5b5061037c61096e565b6040516103899190613154565b60405180910390f35b34801561039e57600080fd5b506103b960048036038101906103b49190612500565b610a10565b6040516103c69190613396565b60405180910390f35b3480156103db57600080fd5b506103f660048036038101906103f191906126f9565b610acf565b005b34801561040457600080fd5b5061040d610bc7565b60405161041a9190613154565b60405180910390f35b34801561042f57600080fd5b5061044a6004803603810190610445919061262f565b610c69565b005b34801561045857600080fd5b50610473600480360381019061046e91906125b4565b610dea565b005b34801561048157600080fd5b5061049c60048036038101906104979190612765565b610e4c565b6040516104a99190613154565b60405180910390f35b6104cc60048036038101906104c7919061278e565b610fcf565b005b3480156104da57600080fd5b506104f560048036038101906104f09190612765565b610fe6565b604051610504939291906130d2565b60405180910390f35b34801561051957600080fd5b50610534600480360381019061052f9190612529565b61116d565b6040516105419190613139565b60405180910390f35b34801561055657600080fd5b5061055f611201565b60405161056c9190613117565b60405180910390f35b6000806000837bffffffffffffffffffffffffffffffffffffffffffffffffffffffff19167bffffffffffffffffffffffffffffffffffffffffffffffffffffffff1916815260200190815260200160002060009054906101000a900460ff169050919050565b6000600a80549050905090565b606060068054600181600116156101000203166002900480601f0160208091040260200160405190810160405280929190818152602001828054600181600116156101000203166002900480156106815780601f1061065657610100808354040283529160200191610681565b820191906000526020600020905b81548152906001019060200180831161066457829003601f168201915b5050505050905090565b6000610696826113fa565b6106d5576040517f08c379a00000000000000000000000000000000000000000000000000000000081526004016106cc906132d6565b60405180910390fd5b6004600083815260200190815260200160002060009054906101000a900473ffffffffffffffffffffffffffffffffffffffff169050919050565b600061071b82610937565b90508073ffffffffffffffffffffffffffffffffffffffff168373ffffffffffffffffffffffffffffffffffffffff16141561078c576040517f08c379a000000000000000000000000000000000000000000000000000000000815260040161078390613336565b60405180910390fd5b8073ffffffffffffffffffffffffffffffffffffffff166107ab611417565b73ffffffffffffffffffffffffffffffffffffffff1614806107da57506107d9816107d4611417565b61116d565b5b610819576040517f08c379a000000000000000000000000000000000000000000000000000000000815260040161081090613256565b60405180910390fd5b610823838361141f565b505050565b600061083460026114d8565b905090565b61084a610844611417565b826114ed565b610889576040517f08c379a000000000000000000000000000000000000000000000000000000000815260040161088090613356565b60405180910390fd5b6108948383836115cb565b505050565b60006108ec82600160008673ffffffffffffffffffffffffffffffffffffffff1673ffffffffffffffffffffffffffffffffffffffff1681526020019081526020016000206117e290919063ffffffff16565b905092915050565b61090f83838360405180602001604052806000815250610dea565b505050565b60008061092b8360026117fc90919063ffffffff16565b50905080915050919050565b60006109678260405180606001604052806029815260200161365b6029913960026118289092919063ffffffff16565b9050919050565b606060098054600181600116156101000203166002900480601f016020809104026020016040519081016040528092919081815260200182805460018160011615610100020316600290048015610a065780601f106109db57610100808354040283529160200191610a06565b820191906000526020600020905b8154815290600101906020018083116109e957829003601f168201915b5050505050905090565b60008073ffffffffffffffffffffffffffffffffffffffff168273ffffffffffffffffffffffffffffffffffffffff161415610a81576040517f08c379a0000000000000000000000000000000000000000000000000000000008152600401610a7890613276565b60405180910390fd5b610ac8600160008473ffffffffffffffffffffffffffffffffffffffff1673ffffffffffffffffffffffffffffffffffffffff168152602001908152602001600020611847565b9050919050565b600a60405180606001604052803373ffffffffffffffffffffffffffffffffffffffff16815260200184815260200183815250908060018154018082558091505060019003906000526020600020906003020160009091909190915060008201518160000160006101000a81548173ffffffffffffffffffffffffffffffffffffffff021916908373ffffffffffffffffffffffffffffffffffffffff1602179055506020820151816001019080519060200190610b8e92919061233d565b506040820151816002019080519060200190610bab92919061233d565b5050506000600a805490509050610bc2338261185c565b505050565b606060078054600181600116156101000203166002900480601f016020809104026020016040519081016040528092919081815260200182805460018160011615610100020316600290048015610c5f5780601f10610c3457610100808354040283529160200191610c5f565b820191906000526020600020905b815481529060010190602001808311610c4257829003601f168201915b5050505050905090565b610c71611417565b73ffffffffffffffffffffffffffffffffffffffff168273ffffffffffffffffffffffffffffffffffffffff161415610cdf576040517f08c379a0000000000000000000000000000000000000000000000000000000008152600401610cd6906131f6565b60405180910390fd5b8060056000610cec611417565b73ffffffffffffffffffffffffffffffffffffffff1673ffffffffffffffffffffffffffffffffffffffff16815260200190815260200160002060008473ffffffffffffffffffffffffffffffffffffffff1673ffffffffffffffffffffffffffffffffffffffff16815260200190815260200160002060006101000a81548160ff0219169083151502179055508173ffffffffffffffffffffffffffffffffffffffff16610d99611417565b73ffffffffffffffffffffffffffffffffffffffff167f17307eab39ab6107e8899845ad3d59bd9653f200f220920489ca2b5937696c3183604051610dde9190613139565b60405180910390a35050565b610dfb610df5611417565b836114ed565b610e3a576040517f08c379a0000000000000000000000000000000000000000000000000000000008152600401610e3190613356565b60405180910390fd5b610e46848484846119ea565b50505050565b6060610e57826113fa565b610e96576040517f08c379a0000000000000000000000000000000000000000000000000000000008152600401610e8d90613316565b60405180910390fd5b6060600860008481526020019081526020016000208054600181600116156101000203166002900480601f016020809104026020016040519081016040528092919081815260200182805460018160011615610100020316600290048015610f3f5780601f10610f1457610100808354040283529160200191610f3f565b820191906000526020600020905b815481529060010190602001808311610f2257829003601f168201915b505050505090506060610f5061096e565b9050600081511415610f66578192505050610fca565b600082511115610f9b578082604051602001610f83929190613047565b60405160208183030381529060405292505050610fca565b80610fa585611a46565b604051602001610fb6929190613047565b604051602081830303815290604052925050505b919050565b610fe2610fdb83610937565b82846115cb565b5050565b600a8181548110610ff357fe5b90600052602060002090600302016000915090508060000160009054906101000a900473ffffffffffffffffffffffffffffffffffffffff1690806001018054600181600116156101000203166002900480601f0160208091040260200160405190810160405280929190818152602001828054600181600116156101000203166002900480156110c55780601f1061109a576101008083540402835291602001916110c5565b820191906000526020600020905b8154815290600101906020018083116110a857829003601f168201915b505050505090806002018054600181600116156101000203166002900480601f0160208091040260200160405190810160405280929190818152602001828054600181600116156101000203166002900480156111635780601f1061113857610100808354040283529160200191611163565b820191906000526020600020905b81548152906001019060200180831161114657829003601f168201915b5050505050905083565b6000600560008473ffffffffffffffffffffffffffffffffffffffff1673ffffffffffffffffffffffffffffffffffffffff16815260200190815260200160002060008373ffffffffffffffffffffffffffffffffffffffff1673ffffffffffffffffffffffffffffffffffffffff16815260200190815260200160002060009054906101000a900460ff16905092915050565b6060600a805480602002602001604051908101604052809291908181526020016000905b828210156113f157838290600052602060002090600302016040518060600160405290816000820160009054906101000a900473ffffffffffffffffffffffffffffffffffffffff1673ffffffffffffffffffffffffffffffffffffffff1673ffffffffffffffffffffffffffffffffffffffff168152602001600182018054600181600116156101000203166002900480601f0160208091040260200160405190810160405280929190818152602001828054600181600116156101000203166002900480156113375780601f1061130c57610100808354040283529160200191611337565b820191906000526020600020905b81548152906001019060200180831161131a57829003601f168201915b50505050508152602001600282018054600181600116156101000203166002900480601f0160208091040260200160405190810160405280929190818152602001828054600181600116156101000203166002900480156113d95780601f106113ae576101008083540402835291602001916113d9565b820191906000526020600020905b8154815290600101906020018083116113bc57829003601f168201915b50505050508152505081526020019060010190611225565b50505050905090565b6000611410826002611b8d90919063ffffffff16565b9050919050565b600033905090565b816004600083815260200190815260200160002060006101000a81548173ffffffffffffffffffffffffffffffffffffffff021916908373ffffffffffffffffffffffffffffffffffffffff160217905550808273ffffffffffffffffffffffffffffffffffffffff1661149283610937565b73ffffffffffffffffffffffffffffffffffffffff167f8c5be1e5ebec7d5bd14f71427d1e84f3dd0314c0f7b2291e5b200ac8c7c3b92560405160405180910390a45050565b60006114e682600001611ba7565b9050919050565b60006114f8826113fa565b611537576040517f08c379a000000000000000000000000000000000000000000000000000000000815260040161152e90613236565b60405180910390fd5b600061154283610937565b90508073ffffffffffffffffffffffffffffffffffffffff168473ffffffffffffffffffffffffffffffffffffffff1614806115b157508373ffffffffffffffffffffffffffffffffffffffff166115998461068b565b73ffffffffffffffffffffffffffffffffffffffff16145b806115c257506115c1818561116d565b5b91505092915050565b8273ffffffffffffffffffffffffffffffffffffffff166115eb82610937565b73ffffffffffffffffffffffffffffffffffffffff1614611641576040517f08c379a0000000000000000000000000000000000000000000000000000000008152600401611638906132f6565b60405180910390fd5b600073ffffffffffffffffffffffffffffffffffffffff168273ffffffffffffffffffffffffffffffffffffffff1614156116b1576040517f08c379a00000000000000000000000000000000000000000000000000000000081526004016116a8906131d6565b60405180910390fd5b6116bc838383611bb8565b6116c760008261141f565b61171881600160008673ffffffffffffffffffffffffffffffffffffffff1673ffffffffffffffffffffffffffffffffffffffff168152602001908152602001600020611bbd90919063ffffffff16565b5061176a81600160008573ffffffffffffffffffffffffffffffffffffffff1673ffffffffffffffffffffffffffffffffffffffff168152602001908152602001600020611bd790919063ffffffff16565b5061178181836002611bf19092919063ffffffff16565b50808273ffffffffffffffffffffffffffffffffffffffff168473ffffffffffffffffffffffffffffffffffffffff167fddf252ad1be2c89b69c2b068fc378daa952ba7f163c4a11628f55a4df523b3ef60405160405180910390a4505050565b60006117f18360000183611c26565b60001c905092915050565b60008060008061180f8660000186611c93565b915091508160001c8160001c9350935050509250929050565b600061183b846000018460001b84611d16565b60001c90509392505050565b600061185582600001611da7565b9050919050565b600073ffffffffffffffffffffffffffffffffffffffff168273ffffffffffffffffffffffffffffffffffffffff1614156118cc576040517f08c379a00000000000000000000000000000000000000000000000000000000081526004016118c3906132b6565b60405180910390fd5b6118d5816113fa565b15611915576040517f08c379a000000000000000000000000000000000000000000000000000000000815260040161190c906131b6565b60405180910390fd5b61192160008383611bb8565b61197281600160008573ffffffffffffffffffffffffffffffffffffffff1673ffffffffffffffffffffffffffffffffffffffff168152602001908152602001600020611bd790919063ffffffff16565b5061198981836002611bf19092919063ffffffff16565b50808273ffffffffffffffffffffffffffffffffffffffff16600073ffffffffffffffffffffffffffffffffffffffff167fddf252ad1be2c89b69c2b068fc378daa952ba7f163c4a11628f55a4df523b3ef60405160405180910390a45050565b6119f58484846115cb565b611a0184848484611db8565b611a40576040517f08c379a0000000000000000000000000000000000000000000000000000000008152600401611a3790613196565b60405180910390fd5b50505050565b60606000821415611a8e576040518060400160405280600181526020017f30000000000000000000000000000000000000000000000000000000000000008152509050611b88565b600082905060005b60008214611ab8578080600101915050600a8281611ab057fe5b049150611a96565b60608167ffffffffffffffff81118015611ad157600080fd5b506040519080825280601f01601f191660200182016040528015611b045781602001600182028036833780820191505090505b50905060006001830390508593505b60008414611b8057600a8481611b2557fe5b0660300160f81b82828060019003935081518110611b3f57fe5b60200101907effffffffffffffffffffffffffffffffffffffffffffffffffffffffffffff1916908160001a905350600a8481611b7857fe5b049350611b13565b819450505050505b919050565b6000611b9f836000018360001b611f1c565b905092915050565b600081600001805490509050919050565b505050565b6000611bcf836000018360001b611f3f565b905092915050565b6000611be9836000018360001b612027565b905092915050565b6000611c1d846000018460001b8473ffffffffffffffffffffffffffffffffffffffff1660001b612097565b90509392505050565b600081836000018054905011611c71576040517f08c379a0000000000000000000000000000000000000000000000000000000008152600401611c6890613176565b60405180910390fd5b826000018281548110611c8057fe5b9060005260206000200154905092915050565b60008082846000018054905011611cdf576040517f08c379a0000000000000000000000000000000000000000000000000000000008152600401611cd690613296565b60405180910390fd5b6000846000018481548110611cf057fe5b906000526020600020906002020190508060000154816001015492509250509250929050565b60008084600101600085815260200190815260200160002054905060008114158390611d78576040517f08c379a0000000000000000000000000000000000000000000000000000000008152600401611d6f9190613154565b60405180910390fd5b50846000016001820381548110611d8b57fe5b9060005260206000209060020201600101549150509392505050565b600081600001805490509050919050565b6000611dd98473ffffffffffffffffffffffffffffffffffffffff16612173565b611de65760019050611f14565b6060611ead63150b7a0260e01b611dfb611417565b888787604051602401611e119493929190613086565b604051602081830303815290604052907bffffffffffffffffffffffffffffffffffffffffffffffffffffffff19166020820180517bffffffffffffffffffffffffffffffffffffffffffffffffffffffff8381831617835250505050604051806060016040528060328152602001613629603291398773ffffffffffffffffffffffffffffffffffffffff166121869092919063ffffffff16565b9050600081806020019051810190611ec591906126d0565b905063150b7a0260e01b7bffffffffffffffffffffffffffffffffffffffffffffffffffffffff1916817bffffffffffffffffffffffffffffffffffffffffffffffffffffffff191614925050505b949350505050565b600080836001016000848152602001908152602001600020541415905092915050565b6000808360010160008481526020019081526020016000205490506000811461201b5760006001820390506000600186600001805490500390506000866000018281548110611f8a57fe5b9060005260206000200154905080876000018481548110611fa757fe5b9060005260206000200181905550600183018760010160008381526020019081526020016000208190555086600001805480611fdf57fe5b60019003818190600052602060002001600090559055866001016000878152602001908152602001600020600090556001945050505050612021565b60009150505b92915050565b6000612033838361219e565b61208c578260000182908060018154018082558091505060019003906000526020600020016000909190919091505582600001805490508360010160008481526020019081526020016000208190555060019050612091565b600090505b92915050565b600080846001016000858152602001908152602001600020549050600081141561213e5784600001604051806040016040528086815260200185815250908060018154018082558091505060019003906000526020600020906002020160009091909190915060008201518160000155602082015181600101555050846000018054905085600101600086815260200190815260200160002081905550600191505061216c565b8285600001600183038154811061215157fe5b90600052602060002090600202016001018190555060009150505b9392505050565b600080823b905060008111915050919050565b606061219584846000856121c1565b90509392505050565b600080836001016000848152602001908152602001600020541415905092915050565b606082471015612206576040517f08c379a00000000000000000000000000000000000000000000000000000000081526004016121fd90613216565b60405180910390fd5b61220f85612173565b61224e576040517f08c379a000000000000000000000000000000000000000000000000000000000815260040161224590613376565b60405180910390fd5b600060608673ffffffffffffffffffffffffffffffffffffffff1685876040516122789190613030565b60006040518083038185875af1925050503d80600081146122b5576040519150601f19603f3d011682016040523d82523d6000602084013e6122ba565b606091505b50915091506122ca8282866122d6565b92505050949350505050565b606083156122e657829050612336565b6000835111156122f95782518084602001fd5b816040517f08c379a000000000000000000000000000000000000000000000000000000000815260040161232d9190613154565b60405180910390fd5b9392505050565b828054600181600116156101000203166002900490600052602060002090601f016020900481019282601f1061237e57805160ff19168380011785556123ac565b828001600101855582156123ac579182015b828111156123ab578251825591602001919060010190612390565b5b5090506123b991906123bd565b5090565b5b808211156123d65760008160009055506001016123be565b5090565b6000813590506123e9816135b5565b92915050565b6000813590506123fe816135cc565b92915050565b600081359050612413816135e3565b92915050565b600081359050612428816135fa565b92915050565b60008151905061243d816135fa565b92915050565b600082601f83011261245457600080fd5b8135612467612462826133e2565b6133b1565b9150808252602083016020830185838301111561248357600080fd5b61248e838284613560565b50505092915050565b600082601f8301126124a857600080fd5b81356124bb6124b682613412565b6133b1565b915080825260208301602083018583830111156124d757600080fd5b6124e2838284613560565b50505092915050565b6000813590506124fa81613611565b92915050565b60006020828403121561251257600080fd5b6000612520848285016123da565b91505092915050565b6000806040838503121561253c57600080fd5b600061254a858286016123da565b925050602061255b858286016123da565b9150509250929050565b60008060006060848603121561257a57600080fd5b6000612588868287016123da565b9350506020612599868287016123da565b92505060406125aa868287016124eb565b9150509250925092565b600080600080608085870312156125ca57600080fd5b60006125d8878288016123da565b94505060206125e9878288016123da565b93505060406125fa878288016124eb565b925050606085013567ffffffffffffffff81111561261757600080fd5b61262387828801612443565b91505092959194509250565b6000806040838503121561264257600080fd5b6000612650858286016123da565b925050602061266185828601612404565b9150509250929050565b6000806040838503121561267e57600080fd5b600061268c858286016123da565b925050602061269d858286016124eb565b9150509250929050565b6000602082840312156126b957600080fd5b60006126c784828501612419565b91505092915050565b6000602082840312156126e257600080fd5b60006126f08482850161242e565b91505092915050565b6000806040838503121561270c57600080fd5b600083013567ffffffffffffffff81111561272657600080fd5b61273285828601612497565b925050602083013567ffffffffffffffff81111561274f57600080fd5b61275b85828601612497565b9150509250929050565b60006020828403121561277757600080fd5b6000612785848285016124eb565b91505092915050565b600080604083850312156127a157600080fd5b60006127af858286016124eb565b92505060206127c0858286016123ef565b9150509250929050565b60006127d68383612fca565b905092915050565b6127e7816134ec565b82525050565b6127f6816134da565b82525050565b612805816134da565b82525050565b600061281682613452565b6128208185613480565b93508360208202850161283285613442565b8060005b8581101561286e578484038952815161284f85826127ca565b945061285a83613473565b925060208a01995050600181019050612836565b50829750879550505050505092915050565b612889816134fe565b82525050565b600061289a8261345d565b6128a48185613491565b93506128b481856020860161356f565b6128bd816135a4565b840191505092915050565b60006128d38261345d565b6128dd81856134a2565b93506128ed81856020860161356f565b80840191505092915050565b600061290482613468565b61290e81856134ad565b935061291e81856020860161356f565b612927816135a4565b840191505092915050565b600061293d82613468565b61294781856134be565b935061295781856020860161356f565b612960816135a4565b840191505092915050565b600061297682613468565b61298081856134cf565b935061299081856020860161356f565b80840191505092915050565b60006129a96022836134be565b91507f456e756d657261626c655365743a20696e646578206f7574206f6620626f756e60008301527f64730000000000000000000000000000000000000000000000000000000000006020830152604082019050919050565b6000612a0f6032836134be565b91507f4552433732313a207472616e7366657220746f206e6f6e20455243373231526560008301527f63656976657220696d706c656d656e74657200000000000000000000000000006020830152604082019050919050565b6000612a75601c836134be565b91507f4552433732313a20746f6b656e20616c7265616479206d696e746564000000006000830152602082019050919050565b6000612ab56024836134be565b91507f4552433732313a207472616e7366657220746f20746865207a65726f2061646460008301527f72657373000000000000000000000000000000000000000000000000000000006020830152604082019050919050565b6000612b1b6019836134be565b91507f4552433732313a20617070726f766520746f2063616c6c6572000000000000006000830152602082019050919050565b6000612b5b6026836134be565b91507f416464726573733a20696e73756666696369656e742062616c616e636520666f60008301527f722063616c6c00000000000000000000000000000000000000000000000000006020830152604082019050919050565b6000612bc1602c836134be565b91507f4552433732313a206f70657261746f7220717565727920666f72206e6f6e657860008301527f697374656e7420746f6b656e00000000000000000000000000000000000000006020830152604082019050919050565b6000612c276038836134be565b91507f4552433732313a20617070726f76652063616c6c6572206973206e6f74206f7760008301527f6e6572206e6f7220617070726f76656420666f7220616c6c00000000000000006020830152604082019050919050565b6000612c8d602a836134be565b91507f4552433732313a2062616c616e636520717565727920666f7220746865207a6560008301527f726f2061646472657373000000000000000000000000000000000000000000006020830152604082019050919050565b6000612cf36022836134be565b91507f456e756d657261626c654d61703a20696e646578206f7574206f6620626f756e60008301527f64730000000000000000000000000000000000000000000000000000000000006020830152604082019050919050565b6000612d596020836134be565b91507f4552433732313a206d696e7420746f20746865207a65726f20616464726573736000830152602082019050919050565b6000612d99602c836134be565b91507f4552433732313a20617070726f76656420717565727920666f72206e6f6e657860008301527f697374656e7420746f6b656e00000000000000000000000000000000000000006020830152604082019050919050565b6000612dff6029836134be565b91507f4552433732313a207472616e73666572206f6620746f6b656e2074686174206960008301527f73206e6f74206f776e00000000000000000000000000000000000000000000006020830152604082019050919050565b6000612e65602f836134be565b91507f4552433732314d657461646174613a2055524920717565727920666f72206e6f60008301527f6e6578697374656e7420746f6b656e00000000000000000000000000000000006020830152604082019050919050565b6000612ecb6021836134be565b91507f4552433732313a20617070726f76616c20746f2063757272656e74206f776e6560008301527f72000000000000000000000000000000000000000000000000000000000000006020830152604082019050919050565b6000612f316031836134be565b91507f4552433732313a207472616e736665722063616c6c6572206973206e6f74206f60008301527f776e6572206e6f7220617070726f7665640000000000000000000000000000006020830152604082019050919050565b6000612f97601d836134be565b91507f416464726573733a2063616c6c20746f206e6f6e2d636f6e74726163740000006000830152602082019050919050565b6000606083016000830151612fe260008601826127ed565b5060208301518482036020860152612ffa82826128f9565b9150506040830151848203604086015261301482826128f9565b9150508091505092915050565b61302a81613556565b82525050565b600061303c82846128c8565b915081905092915050565b6000613053828561296b565b915061305f828461296b565b91508190509392505050565b600060208201905061308060008301846127fc565b92915050565b600060808201905061309b60008301876127de565b6130a860208301866127fc565b6130b56040830185613021565b81810360608301526130c7818461288f565b905095945050505050565b60006060820190506130e760008301866127fc565b81810360208301526130f98185612932565b9050818103604083015261310d8184612932565b9050949350505050565b60006020820190508181036000830152613131818461280b565b905092915050565b600060208201905061314e6000830184612880565b92915050565b6000602082019050818103600083015261316e8184612932565b905092915050565b6000602082019050818103600083015261318f8161299c565b9050919050565b600060208201905081810360008301526131af81612a02565b9050919050565b600060208201905081810360008301526131cf81612a68565b9050919050565b600060208201905081810360008301526131ef81612aa8565b9050919050565b6000602082019050818103600083015261320f81612b0e565b9050919050565b6000602082019050818103600083015261322f81612b4e565b9050919050565b6000602082019050818103600083015261324f81612bb4565b9050919050565b6000602082019050818103600083015261326f81612c1a565b9050919050565b6000602082019050818103600083015261328f81612c80565b9050919050565b600060208201905081810360008301526132af81612ce6565b9050919050565b600060208201905081810360008301526132cf81612d4c565b9050919050565b600060208201905081810360008301526132ef81612d8c565b9050919050565b6000602082019050818103600083015261330f81612df2565b9050919050565b6000602082019050818103600083015261332f81612e58565b9050919050565b6000602082019050818103600083015261334f81612ebe565b9050919050565b6000602082019050818103600083015261336f81612f24565b9050919050565b6000602082019050818103600083015261338f81612f8a565b9050919050565b60006020820190506133ab6000830184613021565b92915050565b6000604051905081810181811067ffffffffffffffff821117156133d8576133d76135a2565b5b8060405250919050565b600067ffffffffffffffff8211156133fd576133fc6135a2565b5b601f19601f8301169050602081019050919050565b600067ffffffffffffffff82111561342d5761342c6135a2565b5b601f19601f8301169050602081019050919050565b6000819050602082019050919050565b600081519050919050565b600081519050919050565b600081519050919050565b6000602082019050919050565b600082825260208201905092915050565b600082825260208201905092915050565b600081905092915050565b600082825260208201905092915050565b600082825260208201905092915050565b600081905092915050565b60006134e582613536565b9050919050565b60006134f782613536565b9050919050565b60008115159050919050565b60007fffffffff0000000000000000000000000000000000000000000000000000000082169050919050565b600073ffffffffffffffffffffffffffffffffffffffff82169050919050565b6000819050919050565b82818337600083830152505050565b60005b8381101561358d578082015181840152602081019050613572565b8381111561359c576000848401525b50505050565bfe5b6000601f19601f8301169050919050565b6135be816134da565b81146135c957600080fd5b50565b6135d5816134ec565b81146135e057600080fd5b50565b6135ec816134fe565b81146135f757600080fd5b50565b6136038161350a565b811461360e57600080fd5b50565b61361a81613556565b811461362557600080fd5b5056fe4552433732313a207472616e7366657220746f206e6f6e20455243373231526563656976657220696d706c656d656e7465724552433732313a206f776e657220717565727920666f72206e6f6e6578697374656e7420746f6b656ea26469706673582212200b0ab165ba5f110bbeb23c8033a42f56d809fcd21ebe2ddb41639b128f20aca864736f6c63430007030033",
  "linkReferences": {},
  "deployedLinkReferences": {}
}