{
  "_format": "hh-sol-artifact-1",
  "contractName": "UniqueTweet",
  "sourceName": "contracts/Tweet.sol",
  "abi": [
    {
      "inputs": [],
      "stateMutability": "nonpayable",
      "type": "constructor"
    },
    {
      "anonymous": false,
      "inputs": [
        {
          "indexed": true,
          "internalType": "address",
          "name": "owner",
          "type": "address"
        },
        {
          "indexed": true,
          "internalType": "address",
          "name": "approved",
          "type": "address"
        },
        {
          "indexed": true,
          "internalType": "uint256",
          "name": "tokenId",
          "type": "uint256"
        }
      ],
      "name": "Approval",
      "type": "event"
    },
    {
      "anonymous": false,
      "inputs": [
        {
          "indexed": true,
          "internalType": "address",
          "name": "owner",
          "type": "address"
        },
        {
          "indexed": true,
          "internalType": "address",
          "name": "operator",
          "type": "address"
        },
        {
          "indexed": false,
          "internalType": "bool",
          "name": "approved",
          "type": "bool"
        }
      ],
      "name": "ApprovalForAll",
      "type": "event"
    },
    {
      "anonymous": false,
      "inputs": [
        {
          "indexed": true,
          "internalType": "address",
          "name": "from",
          "type": "address"
        },
        {
          "indexed": true,
          "internalType": "address",
          "name": "to",
          "type": "address"
        },
        {
          "indexed": true,
          "internalType": "uint256",
          "name": "tokenId",
          "type": "uint256"
        }
      ],
      "name": "Transfer",
      "type": "event"
    },
    {
      "inputs": [
        {
          "internalType": "address",
          "name": "to",
          "type": "address"
        },
        {
          "internalType": "uint256",
          "name": "tokenId",
          "type": "uint256"
        }
      ],
      "name": "approve",
      "outputs": [],
      "stateMutability": "nonpayable",
      "type": "function"
    },
    {
      "inputs": [
        {
          "internalType": "address",
          "name": "owner",
          "type": "address"
        }
      ],
      "name": "balanceOf",
      "outputs": [
        {
          "internalType": "uint256",
          "name": "",
          "type": "uint256"
        }
      ],
      "stateMutability": "view",
      "type": "function"
    },
    {
      "inputs": [],
      "name": "baseURI",
      "outputs": [
        {
          "internalType": "string",
          "name": "",
          "type": "string"
        }
      ],
      "stateMutability": "view",
      "type": "function"
    },
    {
      "inputs": [],
      "name": "countTweets",
      "outputs": [
        {
          "internalType": "uint256",
          "name": "",
          "type": "uint256"
        }
      ],
      "stateMutability": "view",
      "type": "function"
    },
    {
      "inputs": [
        {
          "internalType": "uint256",
          "name": "tokenId",
          "type": "uint256"
        }
      ],
      "name": "getApproved",
      "outputs": [
        {
          "internalType": "address",
          "name": "",
          "type": "address"
        }
      ],
      "stateMutability": "view",
      "type": "function"
    },
    {
      "inputs": [],
      "name": "getTweets",
      "outputs": [
        {
          "components": [
            {
              "internalType": "address",
              "name": "user",
              "type": "address"
            },
            {
              "internalType": "string",
              "name": "text",
              "type": "string"
            },
            {
              "internalType": "string",
              "name": "date",
              "type": "string"
            }
          ],
          "internalType": "struct Tweet[]",
          "name": "",
          "type": "tuple[]"
        }
      ],
      "stateMutability": "view",
      "type": "function"
    },
    {
      "inputs": [
        {
          "internalType": "address",
          "name": "owner",
          "type": "address"
        },
        {
          "internalType": "address",
          "name": "operator",
          "type": "address"
        }
      ],
      "name": "isApprovedForAll",
      "outputs": [
        {
          "internalType": "bool",
          "name": "",
          "type": "bool"
        }
      ],
      "stateMutability": "view",
      "type": "function"
    },
    {
      "inputs": [
        {
          "internalType": "string",
          "name": "text",
          "type": "string"
        },
        {
          "internalType": "string",
          "name": "date",
          "type": "string"
        }
      ],
      "name": "mint",
      "outputs": [],
      "stateMutability": "nonpayable",
      "type": "function"
    },
    {
      "inputs": [],
      "name": "name",
      "outputs": [
        {
          "internalType": "string",
          "name": "",
          "type": "string"
        }
      ],
      "stateMutability": "view",
      "type": "function"
    },
    {
      "inputs": [
        {
          "internalType": "uint256",
          "name": "tokenId",
          "type": "uint256"
        }
      ],
      "name": "ownerOf",
      "outputs": [
        {
          "internalType": "address",
          "name": "",
          "type": "address"
        }
      ],
      "stateMutability": "view",
      "type": "function"
    },
    {
      "inputs": [
        {
          "internalType": "address",
          "name": "from",
          "type": "address"
        },
        {
          "internalType": "address",
          "name": "to",
          "type": "address"
        },
        {
          "internalType": "uint256",
          "name": "tokenId",
          "type": "uint256"
        }
      ],
      "name": "safeTransferFrom",
      "outputs": [],
      "stateMutability": "nonpayable",
      "type": "function"
    },
    {
      "inputs": [
        {
          "internalType": "address",
          "name": "from",
          "type": "address"
        },
        {
          "internalType": "address",
          "name": "to",
          "type": "address"
        },
        {
          "internalType": "uint256",
          "name": "tokenId",
          "type": "uint256"
        },
        {
          "internalType": "bytes",
          "name": "_data",
          "type": "bytes"
        }
      ],
      "name": "safeTransferFrom",
      "outputs": [],
      "stateMutability": "nonpayable",
      "type": "function"
    },
    {
      "inputs": [
        {
          "internalType": "address",
          "name": "operator",
          "type": "address"
        },
        {
          "internalType": "bool",
          "name": "approved",
          "type": "bool"
        }
      ],
      "name": "setApprovalForAll",
      "outputs": [],
      "stateMutability": "nonpayable",
      "type": "function"
    },
    {
      "inputs": [
        {
          "internalType": "bytes4",
          "name": "interfaceId",
          "type": "bytes4"
        }
      ],
      "name": "supportsInterface",
      "outputs": [
        {
          "internalType": "bool",
          "name": "",
          "type": "bool"
        }
      ],
      "stateMutability": "view",
      "type": "function"
    },
    {
      "inputs": [],
      "name": "symbol",
      "outputs": [
        {
          "internalType": "string",
          "name": "",
          "type": "string"
        }
      ],
      "stateMutability": "view",
      "type": "function"
    },
    {
      "inputs": [
        {
          "internalType": "uint256",
          "name": "index",
          "type": "uint256"
        }
      ],
      "name": "tokenByIndex",
      "outputs": [
        {
          "internalType": "uint256",
          "name": "",
          "type": "uint256"
        }
      ],
      "stateMutability": "view",
      "type": "function"
    },
    {
      "inputs": [
        {
          "internalType": "address",
          "name": "owner",
          "type": "address"
        },
        {
          "internalType": "uint256",
          "name": "index",
          "type": "uint256"
        }
      ],
      "name": "tokenOfOwnerByIndex",
      "outputs": [
        {
          "internalType": "uint256",
          "name": "",
          "type": "uint256"
        }
      ],
      "stateMutability": "view",
      "type": "function"
    },
    {
      "inputs": [
        {
          "internalType": "uint256",
          "name": "tokenId",
          "type": "uint256"
        }
      ],
      "name": "tokenURI",
      "outputs": [
        {
          "internalType": "string",
          "name": "",
          "type": "string"
        }
      ],
      "stateMutability": "view",
      "type": "function"
    },
    {
      "inputs": [],
      "name": "totalSupply",
      "outputs": [
        {
          "internalType": "uint256",
          "name": "",
          "type": "uint256"
        }
      ],
      "stateMutability": "view",
      "type": "function"
    },
    {
      "inputs": [
        {
          "internalType": "address",
          "name": "from",
          "type": "address"
        },
        {
          "internalType": "address",
          "name": "to",
          "type": "address"
        },
        {
          "internalType": "uint256",
          "name": "tokenId",
          "type": "uint256"
        }
      ],
      "name": "transferFrom",
      "outputs": [],
      "stateMutability": "nonpayable",
      "type": "function"
    },
    {
      "inputs": [
        {
          "internalType": "uint256",
          "name": "",
          "type": "uint256"
        }
      ],
      "name": "tweets",
      "outputs": [
        {
          "internalType": "address",
          "name": "user",
          "type": "address"
        },
        {
          "internalType": "string",
          "name": "text",
          "type": "string"
        },
        {
          "internalType": "string",
          "name": "date",
          "type": "string"
        }
      ],
      "stateMutability": "view",
      "type": "function"
    }
  ],
  "bytecode": "0x60806040523480156200001157600080fd5b506040518060400160405280600b81526020017f556e6971756554776565740000000000000000000000000000000000000000008152506040518060400160405280600b81526020017f554e495155455457454554000000000000000000000000000000000000000000815250620000966301ffc9a760e01b6200011860201b60201c565b8160069080519060200190620000ae929190620001f0565b508060079080519060200190620000c7929190620001f0565b50620000e06380ac58cd60e01b6200011860201b60201c565b620000f8635b5e139f60e01b6200011860201b60201c565b6200011063780e9d6360e01b6200011860201b60201c565b50506200030b565b63ffffffff60e01b817bffffffffffffffffffffffffffffffffffffffffffffffffffffffff1916141562000184576040517f08c379a00000000000000000000000000000000000000000000000000000000081526004016200017b90620002d8565b60405180910390fd5b6001600080837bffffffffffffffffffffffffffffffffffffffffffffffffffffffff19167bffffffffffffffffffffffffffffffffffffffffffffffffffffffff1916815260200190815260200160002060006101000a81548160ff02191690831515021790555050565b828054600181600116156101000203166002900490600052602060002090601f016020900481019282601f106200023357805160ff191683800117855562000264565b8280016001018555821562000264579182015b828111156200026357825182559160200191906001019062000246565b5b50905062000273919062000277565b5090565b5b808211156200029257600081600090555060010162000278565b5090565b6000620002a5601c83620002fa565b91507f4552433136353a20696e76616c696420696e74657266616365206964000000006000830152602082019050919050565b60006020820190508181036000830152620002f38162000296565b9050919050565b600082825260208201905092915050565b61350f806200031b6000396000f3fe608060405234801561001057600080fd5b50600436106101375760003560e01c80636352211e116100b8578063a22cb4651161007c578063a22cb46514610362578063b88d4fde1461037e578063c87b56dd1461039a578063e8d857b0146103ca578063e985e9c5146103fc578063fc86741f1461042c57610137565b80636352211e146102aa5780636c0360eb146102da57806370a08231146102f85780638aa0fdad1461032857806395d89b411461034457610137565b806318160ddd116100ff57806318160ddd146101f457806323b872dd146102125780632f745c591461022e57806342842e0e1461025e5780634f6ccce71461027a57610137565b806301ffc9a71461013c5780630697ccf01461016c57806306fdde031461018a578063081812fc146101a8578063095ea7b3146101d8575b600080fd5b61015660048036038101906101519190612550565b61044a565b6040516101639190612fa6565b60405180910390f35b6101746104b1565b6040516101819190613203565b60405180910390f35b6101926104be565b60405161019f9190612fc1565b60405180910390f35b6101c260048036038101906101bd919061260e565b610560565b6040516101cf9190612ed8565b60405180910390f35b6101f260048036038101906101ed9190612514565b6105e5565b005b6101fc6106fd565b6040516102099190613203565b60405180910390f35b61022c6004803603810190610227919061240e565b61070e565b005b61024860048036038101906102439190612514565b61076e565b6040516102559190613203565b60405180910390f35b6102786004803603810190610273919061240e565b6107c9565b005b610294600480360381019061028f919061260e565b6107e9565b6040516102a19190613203565b60405180910390f35b6102c460048036038101906102bf919061260e565b61080c565b6040516102d19190612ed8565b60405180910390f35b6102e2610843565b6040516102ef9190612fc1565b60405180910390f35b610312600480360381019061030d91906123a9565b6108e5565b60405161031f9190613203565b60405180910390f35b610342600480360381019061033d91906125a2565b6109a4565b005b61034c610a9c565b6040516103599190612fc1565b60405180910390f35b61037c600480360381019061037791906124d8565b610b3e565b005b6103986004803603810190610393919061245d565b610cbf565b005b6103b460048036038101906103af919061260e565b610d21565b6040516103c19190612fc1565b60405180910390f35b6103e460048036038101906103df919061260e565b610ea4565b6040516103f393929190612f3f565b60405180910390f35b610416600480360381019061041191906123d2565b61102b565b6040516104239190612fa6565b60405180910390f35b6104346110bf565b6040516104419190612f84565b60405180910390f35b6000806000837bffffffffffffffffffffffffffffffffffffffffffffffffffffffff19167bffffffffffffffffffffffffffffffffffffffffffffffffffffffff1916815260200190815260200160002060009054906101000a900460ff169050919050565b6000600a80549050905090565b606060068054600181600116156101000203166002900480601f0160208091040260200160405190810160405280929190818152602001828054600181600116156101000203166002900480156105565780601f1061052b57610100808354040283529160200191610556565b820191906000526020600020905b81548152906001019060200180831161053957829003601f168201915b5050505050905090565b600061056b826112b8565b6105aa576040517f08c379a00000000000000000000000000000000000000000000000000000000081526004016105a190613143565b60405180910390fd5b6004600083815260200190815260200160002060009054906101000a900473ffffffffffffffffffffffffffffffffffffffff169050919050565b60006105f08261080c565b90508073ffffffffffffffffffffffffffffffffffffffff168373ffffffffffffffffffffffffffffffffffffffff161415610661576040517f08c379a0000000000000000000000000000000000000000000000000000000008152600401610658906131a3565b60405180910390fd5b8073ffffffffffffffffffffffffffffffffffffffff166106806112d5565b73ffffffffffffffffffffffffffffffffffffffff1614806106af57506106ae816106a96112d5565b61102b565b5b6106ee576040517f08c379a00000000000000000000000000000000000000000000000000000000081526004016106e5906130c3565b60405180910390fd5b6106f883836112dd565b505050565b60006107096002611396565b905090565b61071f6107196112d5565b826113ab565b61075e576040517f08c379a0000000000000000000000000000000000000000000000000000000008152600401610755906131c3565b60405180910390fd5b610769838383611489565b505050565b60006107c182600160008673ffffffffffffffffffffffffffffffffffffffff1673ffffffffffffffffffffffffffffffffffffffff1681526020019081526020016000206116a090919063ffffffff16565b905092915050565b6107e483838360405180602001604052806000815250610cbf565b505050565b6000806108008360026116ba90919063ffffffff16565b50905080915050919050565b600061083c826040518060600160405280602981526020016134b16029913960026116e69092919063ffffffff16565b9050919050565b606060098054600181600116156101000203166002900480601f0160208091040260200160405190810160405280929190818152602001828054600181600116156101000203166002900480156108db5780601f106108b0576101008083540402835291602001916108db565b820191906000526020600020905b8154815290600101906020018083116108be57829003601f168201915b5050505050905090565b60008073ffffffffffffffffffffffffffffffffffffffff168273ffffffffffffffffffffffffffffffffffffffff161415610956576040517f08c379a000000000000000000000000000000000000000000000000000000000815260040161094d906130e3565b60405180910390fd5b61099d600160008473ffffffffffffffffffffffffffffffffffffffff1673ffffffffffffffffffffffffffffffffffffffff168152602001908152602001600020611705565b9050919050565b600a60405180606001604052803373ffffffffffffffffffffffffffffffffffffffff16815260200184815260200183815250908060018154018082558091505060019003906000526020600020906003020160009091909190915060008201518160000160006101000a81548173ffffffffffffffffffffffffffffffffffffffff021916908373ffffffffffffffffffffffffffffffffffffffff1602179055506020820151816001019080519060200190610a639291906121fb565b506040820151816002019080519060200190610a809291906121fb565b5050506000600a805490509050610a97338261171a565b505050565b606060078054600181600116156101000203166002900480601f016020809104026020016040519081016040528092919081815260200182805460018160011615610100020316600290048015610b345780601f10610b0957610100808354040283529160200191610b34565b820191906000526020600020905b815481529060010190602001808311610b1757829003601f168201915b5050505050905090565b610b466112d5565b73ffffffffffffffffffffffffffffffffffffffff168273ffffffffffffffffffffffffffffffffffffffff161415610bb4576040517f08c379a0000000000000000000000000000000000000000000000000000000008152600401610bab90613063565b60405180910390fd5b8060056000610bc16112d5565b73ffffffffffffffffffffffffffffffffffffffff1673ffffffffffffffffffffffffffffffffffffffff16815260200190815260200160002060008473ffffffffffffffffffffffffffffffffffffffff1673ffffffffffffffffffffffffffffffffffffffff16815260200190815260200160002060006101000a81548160ff0219169083151502179055508173ffffffffffffffffffffffffffffffffffffffff16610c6e6112d5565b73ffffffffffffffffffffffffffffffffffffffff167f17307eab39ab6107e8899845ad3d59bd9653f200f220920489ca2b5937696c3183604051610cb39190612fa6565b60405180910390a35050565b610cd0610cca6112d5565b836113ab565b610d0f576040517f08c379a0000000000000000000000000000000000000000000000000000000008152600401610d06906131c3565b60405180910390fd5b610d1b848484846118a8565b50505050565b6060610d2c826112b8565b610d6b576040517f08c379a0000000000000000000000000000000000000000000000000000000008152600401610d6290613183565b60405180910390fd5b6060600860008481526020019081526020016000208054600181600116156101000203166002900480601f016020809104026020016040519081016040528092919081815260200182805460018160011615610100020316600290048015610e145780601f10610de957610100808354040283529160200191610e14565b820191906000526020600020905b815481529060010190602001808311610df757829003601f168201915b505050505090506060610e25610843565b9050600081511415610e3b578192505050610e9f565b600082511115610e70578082604051602001610e58929190612eb4565b60405160208183030381529060405292505050610e9f565b80610e7a85611904565b604051602001610e8b929190612eb4565b604051602081830303815290604052925050505b919050565b600a8181548110610eb157fe5b90600052602060002090600302016000915090508060000160009054906101000a900473ffffffffffffffffffffffffffffffffffffffff1690806001018054600181600116156101000203166002900480601f016020809104026020016040519081016040528092919081815260200182805460018160011615610100020316600290048015610f835780601f10610f5857610100808354040283529160200191610f83565b820191906000526020600020905b815481529060010190602001808311610f6657829003601f168201915b505050505090806002018054600181600116156101000203166002900480601f0160208091040260200160405190810160405280929190818152602001828054600181600116156101000203166002900480156110215780601f10610ff657610100808354040283529160200191611021565b820191906000526020600020905b81548152906001019060200180831161100457829003601f168201915b5050505050905083565b6000600560008473ffffffffffffffffffffffffffffffffffffffff1673ffffffffffffffffffffffffffffffffffffffff16815260200190815260200160002060008373ffffffffffffffffffffffffffffffffffffffff1673ffffffffffffffffffffffffffffffffffffffff16815260200190815260200160002060009054906101000a900460ff16905092915050565b6060600a805480602002602001604051908101604052809291908181526020016000905b828210156112af57838290600052602060002090600302016040518060600160405290816000820160009054906101000a900473ffffffffffffffffffffffffffffffffffffffff1673ffffffffffffffffffffffffffffffffffffffff1673ffffffffffffffffffffffffffffffffffffffff168152602001600182018054600181600116156101000203166002900480601f0160208091040260200160405190810160405280929190818152602001828054600181600116156101000203166002900480156111f55780601f106111ca576101008083540402835291602001916111f5565b820191906000526020600020905b8154815290600101906020018083116111d857829003601f168201915b50505050508152602001600282018054600181600116156101000203166002900480601f0160208091040260200160405190810160405280929190818152602001828054600181600116156101000203166002900480156112975780601f1061126c57610100808354040283529160200191611297565b820191906000526020600020905b81548152906001019060200180831161127a57829003601f168201915b505050505081525050815260200190600101906110e3565b50505050905090565b60006112ce826002611a4b90919063ffffffff16565b9050919050565b600033905090565b816004600083815260200190815260200160002060006101000a81548173ffffffffffffffffffffffffffffffffffffffff021916908373ffffffffffffffffffffffffffffffffffffffff160217905550808273ffffffffffffffffffffffffffffffffffffffff166113508361080c565b73ffffffffffffffffffffffffffffffffffffffff167f8c5be1e5ebec7d5bd14f71427d1e84f3dd0314c0f7b2291e5b200ac8c7c3b92560405160405180910390a45050565b60006113a482600001611a65565b9050919050565b60006113b6826112b8565b6113f5576040517f08c379a00000000000000000000000000000000000000000000000000000000081526004016113ec906130a3565b60405180910390fd5b60006114008361080c565b90508073ffffffffffffffffffffffffffffffffffffffff168473ffffffffffffffffffffffffffffffffffffffff16148061146f57508373ffffffffffffffffffffffffffffffffffffffff1661145784610560565b73ffffffffffffffffffffffffffffffffffffffff16145b80611480575061147f818561102b565b5b91505092915050565b8273ffffffffffffffffffffffffffffffffffffffff166114a98261080c565b73ffffffffffffffffffffffffffffffffffffffff16146114ff576040517f08c379a00000000000000000000000000000000000000000000000000000000081526004016114f690613163565b60405180910390fd5b600073ffffffffffffffffffffffffffffffffffffffff168273ffffffffffffffffffffffffffffffffffffffff16141561156f576040517f08c379a000000000000000000000000000000000000000000000000000000000815260040161156690613043565b60405180910390fd5b61157a838383611a76565b6115856000826112dd565b6115d681600160008673ffffffffffffffffffffffffffffffffffffffff1673ffffffffffffffffffffffffffffffffffffffff168152602001908152602001600020611a7b90919063ffffffff16565b5061162881600160008573ffffffffffffffffffffffffffffffffffffffff1673ffffffffffffffffffffffffffffffffffffffff168152602001908152602001600020611a9590919063ffffffff16565b5061163f81836002611aaf9092919063ffffffff16565b50808273ffffffffffffffffffffffffffffffffffffffff168473ffffffffffffffffffffffffffffffffffffffff167fddf252ad1be2c89b69c2b068fc378daa952ba7f163c4a11628f55a4df523b3ef60405160405180910390a4505050565b60006116af8360000183611ae4565b60001c905092915050565b6000806000806116cd8660000186611b51565b915091508160001c8160001c9350935050509250929050565b60006116f9846000018460001b84611bd4565b60001c90509392505050565b600061171382600001611c65565b9050919050565b600073ffffffffffffffffffffffffffffffffffffffff168273ffffffffffffffffffffffffffffffffffffffff16141561178a576040517f08c379a000000000000000000000000000000000000000000000000000000000815260040161178190613123565b60405180910390fd5b611793816112b8565b156117d3576040517f08c379a00000000000000000000000000000000000000000000000000000000081526004016117ca90613023565b60405180910390fd5b6117df60008383611a76565b61183081600160008573ffffffffffffffffffffffffffffffffffffffff1673ffffffffffffffffffffffffffffffffffffffff168152602001908152602001600020611a9590919063ffffffff16565b5061184781836002611aaf9092919063ffffffff16565b50808273ffffffffffffffffffffffffffffffffffffffff16600073ffffffffffffffffffffffffffffffffffffffff167fddf252ad1be2c89b69c2b068fc378daa952ba7f163c4a11628f55a4df523b3ef60405160405180910390a45050565b6118b3848484611489565b6118bf84848484611c76565b6118fe576040517f08c379a00000000000000000000000000000000000000000000000000000000081526004016118f590613003565b60405180910390fd5b50505050565b6060600082141561194c576040518060400160405280600181526020017f30000000000000000000000000000000000000000000000000000000000000008152509050611a46565b600082905060005b60008214611976578080600101915050600a828161196e57fe5b049150611954565b60608167ffffffffffffffff8111801561198f57600080fd5b506040519080825280601f01601f1916602001820160405280156119c25781602001600182028036833780820191505090505b50905060006001830390508593505b60008414611a3e57600a84816119e357fe5b0660300160f81b828280600190039350815181106119fd57fe5b60200101907effffffffffffffffffffffffffffffffffffffffffffffffffffffffffffff1916908160001a905350600a8481611a3657fe5b0493506119d1565b819450505050505b919050565b6000611a5d836000018360001b611dda565b905092915050565b600081600001805490509050919050565b505050565b6000611a8d836000018360001b611dfd565b905092915050565b6000611aa7836000018360001b611ee5565b905092915050565b6000611adb846000018460001b8473ffffffffffffffffffffffffffffffffffffffff1660001b611f55565b90509392505050565b600081836000018054905011611b2f576040517f08c379a0000000000000000000000000000000000000000000000000000000008152600401611b2690612fe3565b60405180910390fd5b826000018281548110611b3e57fe5b9060005260206000200154905092915050565b60008082846000018054905011611b9d576040517f08c379a0000000000000000000000000000000000000000000000000000000008152600401611b9490613103565b60405180910390fd5b6000846000018481548110611bae57fe5b906000526020600020906002020190508060000154816001015492509250509250929050565b60008084600101600085815260200190815260200160002054905060008114158390611c36576040517f08c379a0000000000000000000000000000000000000000000000000000000008152600401611c2d9190612fc1565b60405180910390fd5b50846000016001820381548110611c4957fe5b9060005260206000209060020201600101549150509392505050565b600081600001805490509050919050565b6000611c978473ffffffffffffffffffffffffffffffffffffffff16612031565b611ca45760019050611dd2565b6060611d6b63150b7a0260e01b611cb96112d5565b888787604051602401611ccf9493929190612ef3565b604051602081830303815290604052907bffffffffffffffffffffffffffffffffffffffffffffffffffffffff19166020820180517bffffffffffffffffffffffffffffffffffffffffffffffffffffffff838183161783525050505060405180606001604052806032815260200161347f603291398773ffffffffffffffffffffffffffffffffffffffff166120449092919063ffffffff16565b9050600081806020019051810190611d839190612579565b905063150b7a0260e01b7bffffffffffffffffffffffffffffffffffffffffffffffffffffffff1916817bffffffffffffffffffffffffffffffffffffffffffffffffffffffff191614925050505b949350505050565b600080836001016000848152602001908152602001600020541415905092915050565b60008083600101600084815260200190815260200160002054905060008114611ed95760006001820390506000600186600001805490500390506000866000018281548110611e4857fe5b9060005260206000200154905080876000018481548110611e6557fe5b9060005260206000200181905550600183018760010160008381526020019081526020016000208190555086600001805480611e9d57fe5b60019003818190600052602060002001600090559055866001016000878152602001908152602001600020600090556001945050505050611edf565b60009150505b92915050565b6000611ef1838361205c565b611f4a578260000182908060018154018082558091505060019003906000526020600020016000909190919091505582600001805490508360010160008481526020019081526020016000208190555060019050611f4f565b600090505b92915050565b6000808460010160008581526020019081526020016000205490506000811415611ffc5784600001604051806040016040528086815260200185815250908060018154018082558091505060019003906000526020600020906002020160009091909190915060008201518160000155602082015181600101555050846000018054905085600101600086815260200190815260200160002081905550600191505061202a565b8285600001600183038154811061200f57fe5b90600052602060002090600202016001018190555060009150505b9392505050565b600080823b905060008111915050919050565b6060612053848460008561207f565b90509392505050565b600080836001016000848152602001908152602001600020541415905092915050565b6060824710156120c4576040517f08c379a00000000000000000000000000000000000000000000000000000000081526004016120bb90613083565b60405180910390fd5b6120cd85612031565b61210c576040517f08c379a0000000000000000000000000000000000000000000000000000000008152600401612103906131e3565b60405180910390fd5b600060608673ffffffffffffffffffffffffffffffffffffffff1685876040516121369190612e9d565b60006040518083038185875af1925050503d8060008114612173576040519150601f19603f3d011682016040523d82523d6000602084013e612178565b606091505b5091509150612188828286612194565b92505050949350505050565b606083156121a4578290506121f4565b6000835111156121b75782518084602001fd5b816040517f08c379a00000000000000000000000000000000000000000000000000000000081526004016121eb9190612fc1565b60405180910390fd5b9392505050565b828054600181600116156101000203166002900490600052602060002090601f016020900481019282601f1061223c57805160ff191683800117855561226a565b8280016001018555821561226a579182015b8281111561226957825182559160200191906001019061224e565b5b509050612277919061227b565b5090565b5b8082111561229457600081600090555060010161227c565b5090565b6000813590506122a781613422565b92915050565b6000813590506122bc81613439565b92915050565b6000813590506122d181613450565b92915050565b6000815190506122e681613450565b92915050565b600082601f8301126122fd57600080fd5b813561231061230b8261324f565b61321e565b9150808252602083016020830185838301111561232c57600080fd5b6123378382846133cd565b50505092915050565b600082601f83011261235157600080fd5b813561236461235f8261327f565b61321e565b9150808252602083016020830185838301111561238057600080fd5b61238b8382846133cd565b50505092915050565b6000813590506123a381613467565b92915050565b6000602082840312156123bb57600080fd5b60006123c984828501612298565b91505092915050565b600080604083850312156123e557600080fd5b60006123f385828601612298565b925050602061240485828601612298565b9150509250929050565b60008060006060848603121561242357600080fd5b600061243186828701612298565b935050602061244286828701612298565b925050604061245386828701612394565b9150509250925092565b6000806000806080858703121561247357600080fd5b600061248187828801612298565b945050602061249287828801612298565b93505060406124a387828801612394565b925050606085013567ffffffffffffffff8111156124c057600080fd5b6124cc878288016122ec565b91505092959194509250565b600080604083850312156124eb57600080fd5b60006124f985828601612298565b925050602061250a858286016122ad565b9150509250929050565b6000806040838503121561252757600080fd5b600061253585828601612298565b925050602061254685828601612394565b9150509250929050565b60006020828403121561256257600080fd5b6000612570848285016122c2565b91505092915050565b60006020828403121561258b57600080fd5b6000612599848285016122d7565b91505092915050565b600080604083850312156125b557600080fd5b600083013567ffffffffffffffff8111156125cf57600080fd5b6125db85828601612340565b925050602083013567ffffffffffffffff8111156125f857600080fd5b61260485828601612340565b9150509250929050565b60006020828403121561262057600080fd5b600061262e84828501612394565b91505092915050565b60006126438383612e37565b905092915050565b61265481613359565b82525050565b61266381613347565b82525050565b61267281613347565b82525050565b6000612683826132bf565b61268d81856132ed565b93508360208202850161269f856132af565b8060005b858110156126db57848403895281516126bc8582612637565b94506126c7836132e0565b925060208a019950506001810190506126a3565b50829750879550505050505092915050565b6126f68161336b565b82525050565b6000612707826132ca565b61271181856132fe565b93506127218185602086016133dc565b61272a81613411565b840191505092915050565b6000612740826132ca565b61274a818561330f565b935061275a8185602086016133dc565b80840191505092915050565b6000612771826132d5565b61277b818561331a565b935061278b8185602086016133dc565b61279481613411565b840191505092915050565b60006127aa826132d5565b6127b4818561332b565b93506127c48185602086016133dc565b6127cd81613411565b840191505092915050565b60006127e3826132d5565b6127ed818561333c565b93506127fd8185602086016133dc565b80840191505092915050565b600061281660228361332b565b91507f456e756d657261626c655365743a20696e646578206f7574206f6620626f756e60008301527f64730000000000000000000000000000000000000000000000000000000000006020830152604082019050919050565b600061287c60328361332b565b91507f4552433732313a207472616e7366657220746f206e6f6e20455243373231526560008301527f63656976657220696d706c656d656e74657200000000000000000000000000006020830152604082019050919050565b60006128e2601c8361332b565b91507f4552433732313a20746f6b656e20616c7265616479206d696e746564000000006000830152602082019050919050565b600061292260248361332b565b91507f4552433732313a207472616e7366657220746f20746865207a65726f2061646460008301527f72657373000000000000000000000000000000000000000000000000000000006020830152604082019050919050565b600061298860198361332b565b91507f4552433732313a20617070726f766520746f2063616c6c6572000000000000006000830152602082019050919050565b60006129c860268361332b565b91507f416464726573733a20696e73756666696369656e742062616c616e636520666f60008301527f722063616c6c00000000000000000000000000000000000000000000000000006020830152604082019050919050565b6000612a2e602c8361332b565b91507f4552433732313a206f70657261746f7220717565727920666f72206e6f6e657860008301527f697374656e7420746f6b656e00000000000000000000000000000000000000006020830152604082019050919050565b6000612a9460388361332b565b91507f4552433732313a20617070726f76652063616c6c6572206973206e6f74206f7760008301527f6e6572206e6f7220617070726f76656420666f7220616c6c00000000000000006020830152604082019050919050565b6000612afa602a8361332b565b91507f4552433732313a2062616c616e636520717565727920666f7220746865207a6560008301527f726f2061646472657373000000000000000000000000000000000000000000006020830152604082019050919050565b6000612b6060228361332b565b91507f456e756d657261626c654d61703a20696e646578206f7574206f6620626f756e60008301527f64730000000000000000000000000000000000000000000000000000000000006020830152604082019050919050565b6000612bc660208361332b565b91507f4552433732313a206d696e7420746f20746865207a65726f20616464726573736000830152602082019050919050565b6000612c06602c8361332b565b91507f4552433732313a20617070726f76656420717565727920666f72206e6f6e657860008301527f697374656e7420746f6b656e00000000000000000000000000000000000000006020830152604082019050919050565b6000612c6c60298361332b565b91507f4552433732313a207472616e73666572206f6620746f6b656e2074686174206960008301527f73206e6f74206f776e00000000000000000000000000000000000000000000006020830152604082019050919050565b6000612cd2602f8361332b565b91507f4552433732314d657461646174613a2055524920717565727920666f72206e6f60008301527f6e6578697374656e7420746f6b656e00000000000000000000000000000000006020830152604082019050919050565b6000612d3860218361332b565b91507f4552433732313a20617070726f76616c20746f2063757272656e74206f776e6560008301527f72000000000000000000000000000000000000000000000000000000000000006020830152604082019050919050565b6000612d9e60318361332b565b91507f4552433732313a207472616e736665722063616c6c6572206973206e6f74206f60008301527f776e6572206e6f7220617070726f7665640000000000000000000000000000006020830152604082019050919050565b6000612e04601d8361332b565b91507f416464726573733a2063616c6c20746f206e6f6e2d636f6e74726163740000006000830152602082019050919050565b6000606083016000830151612e4f600086018261265a565b5060208301518482036020860152612e678282612766565b91505060408301518482036040860152612e818282612766565b9150508091505092915050565b612e97816133c3565b82525050565b6000612ea98284612735565b915081905092915050565b6000612ec082856127d8565b9150612ecc82846127d8565b91508190509392505050565b6000602082019050612eed6000830184612669565b92915050565b6000608082019050612f08600083018761264b565b612f156020830186612669565b612f226040830185612e8e565b8181036060830152612f3481846126fc565b905095945050505050565b6000606082019050612f546000830186612669565b8181036020830152612f66818561279f565b90508181036040830152612f7a818461279f565b9050949350505050565b60006020820190508181036000830152612f9e8184612678565b905092915050565b6000602082019050612fbb60008301846126ed565b92915050565b60006020820190508181036000830152612fdb818461279f565b905092915050565b60006020820190508181036000830152612ffc81612809565b9050919050565b6000602082019050818103600083015261301c8161286f565b9050919050565b6000602082019050818103600083015261303c816128d5565b9050919050565b6000602082019050818103600083015261305c81612915565b9050919050565b6000602082019050818103600083015261307c8161297b565b9050919050565b6000602082019050818103600083015261309c816129bb565b9050919050565b600060208201905081810360008301526130bc81612a21565b9050919050565b600060208201905081810360008301526130dc81612a87565b9050919050565b600060208201905081810360008301526130fc81612aed565b9050919050565b6000602082019050818103600083015261311c81612b53565b9050919050565b6000602082019050818103600083015261313c81612bb9565b9050919050565b6000602082019050818103600083015261315c81612bf9565b9050919050565b6000602082019050818103600083015261317c81612c5f565b9050919050565b6000602082019050818103600083015261319c81612cc5565b9050919050565b600060208201905081810360008301526131bc81612d2b565b9050919050565b600060208201905081810360008301526131dc81612d91565b9050919050565b600060208201905081810360008301526131fc81612df7565b9050919050565b60006020820190506132186000830184612e8e565b92915050565b6000604051905081810181811067ffffffffffffffff821117156132455761324461340f565b5b8060405250919050565b600067ffffffffffffffff82111561326a5761326961340f565b5b601f19601f8301169050602081019050919050565b600067ffffffffffffffff82111561329a5761329961340f565b5b601f19601f8301169050602081019050919050565b6000819050602082019050919050565b600081519050919050565b600081519050919050565b600081519050919050565b6000602082019050919050565b600082825260208201905092915050565b600082825260208201905092915050565b600081905092915050565b600082825260208201905092915050565b600082825260208201905092915050565b600081905092915050565b6000613352826133a3565b9050919050565b6000613364826133a3565b9050919050565b60008115159050919050565b60007fffffffff0000000000000000000000000000000000000000000000000000000082169050919050565b600073ffffffffffffffffffffffffffffffffffffffff82169050919050565b6000819050919050565b82818337600083830152505050565b60005b838110156133fa5780820151818401526020810190506133df565b83811115613409576000848401525b50505050565bfe5b6000601f19601f8301169050919050565b61342b81613347565b811461343657600080fd5b50565b6134428161336b565b811461344d57600080fd5b50565b61345981613377565b811461346457600080fd5b50565b613470816133c3565b811461347b57600080fd5b5056fe4552433732313a207472616e7366657220746f206e6f6e20455243373231526563656976657220696d706c656d656e7465724552433732313a206f776e657220717565727920666f72206e6f6e6578697374656e7420746f6b656ea26469706673582212201c098d9ec6318c607b61a85493fd362596f992134178cdc030106c73df0e078464736f6c63430007030033",
  "linkReferences": {},
  "deployedLinkReferences": {}
}